{
  "contractName": "EnvoyToken",
  "abi": [
    {
      "inputs": [
        {
          "internalType": "string",
          "name": "name",
          "type": "string"
        },
        {
          "internalType": "string",
          "name": "symbol",
          "type": "string"
        }
      ],
      "stateMutability": "nonpayable",
      "type": "constructor"
    },
    {
      "anonymous": false,
      "inputs": [
        {
          "indexed": true,
          "internalType": "address",
          "name": "owner",
          "type": "address"
        },
        {
          "indexed": true,
          "internalType": "address",
          "name": "spender",
          "type": "address"
        },
        {
          "indexed": false,
          "internalType": "uint256",
          "name": "value",
          "type": "uint256"
        }
      ],
      "name": "Approval",
      "type": "event"
    },
    {
      "anonymous": false,
      "inputs": [
        {
          "indexed": true,
          "internalType": "address",
          "name": "from",
          "type": "address"
        },
        {
          "indexed": true,
          "internalType": "address",
          "name": "to",
          "type": "address"
        },
        {
          "indexed": false,
          "internalType": "uint256",
          "name": "value",
          "type": "uint256"
        }
      ],
      "name": "Transfer",
      "type": "event"
    },
    {
      "inputs": [
        {
          "internalType": "address",
          "name": "",
          "type": "address"
        }
      ],
      "name": "_buyerTokens",
      "outputs": [
        {
          "internalType": "uint256",
          "name": "",
          "type": "uint256"
        }
      ],
      "stateMutability": "view",
      "type": "function",
      "constant": true
    },
    {
      "inputs": [],
      "name": "_dexWallet",
      "outputs": [
        {
          "internalType": "address",
          "name": "",
          "type": "address"
        }
      ],
      "stateMutability": "view",
      "type": "function",
      "constant": true
    },
    {
      "inputs": [],
      "name": "_ecosystemWallet",
      "outputs": [
        {
          "internalType": "address",
          "name": "",
          "type": "address"
        }
      ],
      "stateMutability": "view",
      "type": "function",
      "constant": true
    },
    {
      "inputs": [],
      "name": "_liqWallet",
      "outputs": [
        {
          "internalType": "address",
          "name": "",
          "type": "address"
        }
      ],
      "stateMutability": "view",
      "type": "function",
      "constant": true
    },
    {
      "inputs": [],
      "name": "_ownerWallet",
      "outputs": [
        {
          "internalType": "address",
          "name": "",
          "type": "address"
        }
      ],
      "stateMutability": "view",
      "type": "function",
      "constant": true
    },
    {
      "inputs": [],
      "name": "_publicSaleWallet",
      "outputs": [
        {
          "internalType": "address",
          "name": "",
          "type": "address"
        }
      ],
      "stateMutability": "view",
      "type": "function",
      "constant": true
    },
    {
      "inputs": [],
      "name": "_reservesWallet",
      "outputs": [
        {
          "internalType": "address",
          "name": "",
          "type": "address"
        }
      ],
      "stateMutability": "view",
      "type": "function",
      "constant": true
    },
    {
      "inputs": [],
      "name": "_teamWallet",
      "outputs": [
        {
          "internalType": "address",
          "name": "",
          "type": "address"
        }
      ],
      "stateMutability": "view",
      "type": "function",
      "constant": true
    },
    {
      "inputs": [],
      "name": "_totalBuyerTokens",
      "outputs": [
        {
          "internalType": "uint256",
          "name": "",
          "type": "uint256"
        }
      ],
      "stateMutability": "view",
      "type": "function",
      "constant": true
    },
    {
      "inputs": [
        {
          "internalType": "address",
          "name": "",
          "type": "address"
        }
      ],
      "name": "_walletTokensWithdrawn",
      "outputs": [
        {
          "internalType": "uint256",
          "name": "",
          "type": "uint256"
        }
      ],
      "stateMutability": "view",
      "type": "function",
      "constant": true
    },
    {
      "inputs": [
        {
          "internalType": "address",
          "name": "owner",
          "type": "address"
        },
        {
          "internalType": "address",
          "name": "spender",
          "type": "address"
        }
      ],
      "name": "allowance",
      "outputs": [
        {
          "internalType": "uint256",
          "name": "",
          "type": "uint256"
        }
      ],
      "stateMutability": "view",
      "type": "function",
      "constant": true
    },
    {
      "inputs": [
        {
          "internalType": "address",
          "name": "spender",
          "type": "address"
        },
        {
          "internalType": "uint256",
          "name": "amount",
          "type": "uint256"
        }
      ],
      "name": "approve",
      "outputs": [
        {
          "internalType": "bool",
          "name": "",
          "type": "bool"
        }
      ],
      "stateMutability": "nonpayable",
      "type": "function"
    },
    {
      "inputs": [
        {
          "internalType": "address",
          "name": "account",
          "type": "address"
        }
      ],
      "name": "balanceOf",
      "outputs": [
        {
          "internalType": "uint256",
          "name": "",
          "type": "uint256"
        }
      ],
      "stateMutability": "view",
      "type": "function",
      "constant": true
    },
    {
      "inputs": [],
      "name": "decimals",
      "outputs": [
        {
          "internalType": "uint8",
          "name": "",
          "type": "uint8"
        }
      ],
      "stateMutability": "view",
      "type": "function",
      "constant": true
    },
    {
      "inputs": [
        {
          "internalType": "address",
          "name": "spender",
          "type": "address"
        },
        {
          "internalType": "uint256",
          "name": "subtractedValue",
          "type": "uint256"
        }
      ],
      "name": "decreaseAllowance",
      "outputs": [
        {
          "internalType": "bool",
          "name": "",
          "type": "bool"
        }
      ],
      "stateMutability": "nonpayable",
      "type": "function"
    },
    {
      "inputs": [
        {
          "internalType": "address",
          "name": "spender",
          "type": "address"
        },
        {
          "internalType": "uint256",
          "name": "addedValue",
          "type": "uint256"
        }
      ],
      "name": "increaseAllowance",
      "outputs": [
        {
          "internalType": "bool",
          "name": "",
          "type": "bool"
        }
      ],
      "stateMutability": "nonpayable",
      "type": "function"
    },
    {
      "inputs": [],
      "name": "name",
      "outputs": [
        {
          "internalType": "string",
          "name": "",
          "type": "string"
        }
      ],
      "stateMutability": "view",
      "type": "function",
      "constant": true
    },
    {
      "inputs": [],
      "name": "symbol",
      "outputs": [
        {
          "internalType": "string",
          "name": "",
          "type": "string"
        }
      ],
      "stateMutability": "view",
      "type": "function",
      "constant": true
    },
    {
      "inputs": [],
      "name": "totalSupply",
      "outputs": [
        {
          "internalType": "uint256",
          "name": "",
          "type": "uint256"
        }
      ],
      "stateMutability": "view",
      "type": "function",
      "constant": true
    },
    {
      "inputs": [
        {
          "internalType": "address",
          "name": "recipient",
          "type": "address"
        },
        {
          "internalType": "uint256",
          "name": "amount",
          "type": "uint256"
        }
      ],
      "name": "transfer",
      "outputs": [
        {
          "internalType": "bool",
          "name": "",
          "type": "bool"
        }
      ],
      "stateMutability": "nonpayable",
      "type": "function"
    },
    {
      "inputs": [
        {
          "internalType": "address",
          "name": "sender",
          "type": "address"
        },
        {
          "internalType": "address",
          "name": "recipient",
          "type": "address"
        },
        {
          "internalType": "uint256",
          "name": "amount",
          "type": "uint256"
        }
      ],
      "name": "transferFrom",
      "outputs": [
        {
          "internalType": "bool",
          "name": "",
          "type": "bool"
        }
      ],
      "stateMutability": "nonpayable",
      "type": "function"
    },
    {
      "inputs": [
        {
          "internalType": "address",
          "name": "owner",
          "type": "address"
        }
      ],
      "name": "updateOwner",
      "outputs": [],
      "stateMutability": "nonpayable",
      "type": "function"
    },
    {
      "inputs": [
        {
          "internalType": "address",
          "name": "publicSale",
          "type": "address"
        },
        {
          "internalType": "address",
          "name": "team",
          "type": "address"
        },
        {
          "internalType": "address",
          "name": "ecosystem",
          "type": "address"
        },
        {
          "internalType": "address",
          "name": "reserves",
          "type": "address"
        },
        {
          "internalType": "address",
          "name": "dex",
          "type": "address"
        },
        {
          "internalType": "address",
          "name": "liq",
          "type": "address"
        }
      ],
      "name": "updateWallets",
      "outputs": [],
      "stateMutability": "nonpayable",
      "type": "function"
    },
    {
      "inputs": [
        {
          "internalType": "address",
          "name": "buyer",
          "type": "address"
        },
        {
          "internalType": "uint256",
          "name": "tokenAmount",
          "type": "uint256"
        }
      ],
      "name": "setBuyerTokens",
      "outputs": [],
      "stateMutability": "nonpayable",
      "type": "function"
    },
    {
      "inputs": [
        {
          "internalType": "uint256",
          "name": "tokenAmount",
          "type": "uint256"
        }
      ],
      "name": "publicSaleWithdraw",
      "outputs": [],
      "stateMutability": "nonpayable",
      "type": "function"
    },
    {
      "inputs": [
        {
          "internalType": "uint256",
          "name": "tokenAmount",
          "type": "uint256"
        }
      ],
      "name": "teamWithdraw",
      "outputs": [],
      "stateMutability": "nonpayable",
      "type": "function"
    },
    {
      "inputs": [
        {
          "internalType": "uint256",
          "name": "tokenAmount",
          "type": "uint256"
        }
      ],
      "name": "ecosystemWithdraw",
      "outputs": [],
      "stateMutability": "nonpayable",
      "type": "function"
    },
    {
      "inputs": [
        {
          "internalType": "uint256",
          "name": "tokenAmount",
          "type": "uint256"
        }
      ],
      "name": "reservesWithdraw",
      "outputs": [],
      "stateMutability": "nonpayable",
      "type": "function"
    },
    {
      "inputs": [
        {
          "internalType": "uint256",
          "name": "tokenAmount",
          "type": "uint256"
        }
      ],
      "name": "dexWithdraw",
      "outputs": [],
      "stateMutability": "nonpayable",
      "type": "function"
    },
    {
      "inputs": [
        {
          "internalType": "uint256",
          "name": "tokenAmount",
          "type": "uint256"
        }
      ],
      "name": "liqWithdraw",
      "outputs": [],
      "stateMutability": "nonpayable",
      "type": "function"
    },
    {
      "inputs": [
        {
          "internalType": "uint256",
          "name": "tokenAmount",
          "type": "uint256"
        }
      ],
      "name": "buyerWithdraw",
      "outputs": [],
      "stateMutability": "nonpayable",
      "type": "function"
    },
    {
      "inputs": [
        {
          "internalType": "address",
          "name": "wallet",
          "type": "address"
        },
        {
          "internalType": "uint256",
          "name": "initialPercentage",
          "type": "uint256"
        },
        {
          "internalType": "uint256",
          "name": "cliffMinutes",
          "type": "uint256"
        },
        {
          "internalType": "uint256",
          "name": "vestingMinutes",
          "type": "uint256"
        },
        {
          "internalType": "uint256",
          "name": "totalTokens",
          "type": "uint256"
        }
      ],
      "name": "walletCanWithdraw",
      "outputs": [
        {
          "internalType": "uint256",
          "name": "",
          "type": "uint256"
        }
      ],
      "stateMutability": "view",
      "type": "function",
      "constant": true
    }
  ],
  "bytecode": "0x6080604052426005553480156200001557600080fd5b50604051620035cb380380620035cb83398181016040528101906200003b919062000393565b818181600390805190602001906200005592919062000271565b5080600490805190602001906200006e92919062000271565b50505062000081620000e660201b60201c565b600660006101000a81548173ffffffffffffffffffffffffffffffffffffffff021916908373ffffffffffffffffffffffffffffffffffffffff160217905550620000de306a52b7d2dcc80cd2e4000000620000ee60201b60201c565b505062000670565b600033905090565b600073ffffffffffffffffffffffffffffffffffffffff168273ffffffffffffffffffffffffffffffffffffffff16141562000161576040517f08c379a0000000000000000000000000000000000000000000000000000000008152600401620001589062000459565b60405180910390fd5b62000175600083836200026760201b60201c565b806002600082825462000189919062000510565b92505081905550806000808473ffffffffffffffffffffffffffffffffffffffff1673ffffffffffffffffffffffffffffffffffffffff1681526020019081526020016000206000828254620001e0919062000510565b925050819055508173ffffffffffffffffffffffffffffffffffffffff16600073ffffffffffffffffffffffffffffffffffffffff167fddf252ad1be2c89b69c2b068fc378daa952ba7f163c4a11628f55a4df523b3ef836040516200024791906200047b565b60405180910390a362000263600083836200026c60201b60201c565b5050565b505050565b505050565b8280546200027f90620005ad565b90600052602060002090601f016020900481019282620002a35760008555620002ef565b82601f10620002be57805160ff1916838001178555620002ef565b82800160010185558215620002ef579182015b82811115620002ee578251825591602001919060010190620002d1565b5b509050620002fe919062000302565b5090565b5b808211156200031d57600081600090555060010162000303565b5090565b6000620003386200033284620004cc565b62000498565b9050828152602081018484840111156200035157600080fd5b6200035e84828562000577565b509392505050565b600082601f8301126200037857600080fd5b81516200038a84826020860162000321565b91505092915050565b60008060408385031215620003a757600080fd5b600083015167ffffffffffffffff811115620003c257600080fd5b620003d08582860162000366565b925050602083015167ffffffffffffffff811115620003ee57600080fd5b620003fc8582860162000366565b9150509250929050565b600062000415601f83620004ff565b91507f45524332303a206d696e7420746f20746865207a65726f2061646472657373006000830152602082019050919050565b62000453816200056d565b82525050565b60006020820190508181036000830152620004748162000406565b9050919050565b600060208201905062000492600083018462000448565b92915050565b6000604051905081810181811067ffffffffffffffff82111715620004c257620004c162000641565b5b8060405250919050565b600067ffffffffffffffff821115620004ea57620004e962000641565b5b601f19601f8301169050602081019050919050565b600082825260208201905092915050565b60006200051d826200056d565b91506200052a836200056d565b9250827fffffffffffffffffffffffffffffffffffffffffffffffffffffffffffffffff03821115620005625762000561620005e3565b5b828201905092915050565b6000819050919050565b60005b83811015620005975780820151818401526020810190506200057a565b83811115620005a7576000848401525b50505050565b60006002820490506001821680620005c657607f821691505b60208210811415620005dd57620005dc62000612565b5b50919050565b7f4e487b7100000000000000000000000000000000000000000000000000000000600052601160045260246000fd5b7f4e487b7100000000000000000000000000000000000000000000000000000000600052602260045260246000fd5b7f4e487b7100000000000000000000000000000000000000000000000000000000600052604160045260246000fd5b612f4b80620006806000396000f3fe608060405234801561001057600080fd5b50600436106101f05760003560e01c80637a0f06e71161010f578063a457c2d7116100a2578063b96190d611610071578063b96190d6146105cd578063bec3fab1146105eb578063d6aedc6d14610609578063dd62ed3e14610625576101f0565b8063a457c2d714610535578063a9059cbb14610565578063b03fd85a14610595578063b620743a146105b1576101f0565b806393d60990116100de57806393d60990146104c157806395d89b41146104dd57806399c26c53146104fb5780639f1161c314610517576101f0565b80637a0f06e71461043b57806381640a9114610459578063880cdc31146104755780638fc1f49d14610491576101f0565b806337e294d5116101875780634e5fde97116101565780634e5fde971461038f57806363586f39146103ab57806370a08231146103db57806378c51b521461040b576101f0565b806337e294d51461030557806339509351146103235780634825fc0d146103535780634c42074314610371576101f0565b806318160ddd116101c357806318160ddd1461027d57806322cb364e1461029b57806323b872dd146102b7578063313ce567146102e7576101f0565b806306fdde03146101f557806307562e2914610213578063095ea7b31461022f578063100505b91461025f575b600080fd5b6101fd610655565b60405161020a91906129e6565b60405180910390f35b61022d600480360381019061022891906123a2565b6106e7565b005b610249600480360381019061024491906122ef565b61089b565b60405161025691906129cb565b60405180910390f35b6102676108b9565b60405161027491906129b0565b60405180910390f35b6102856108df565b6040516102929190612c28565b60405180910390f35b6102b560048036038101906102b09190612217565b6108e9565b005b6102d160048036038101906102cc91906122a0565b610b0e565b6040516102de91906129cb565b60405180910390f35b6102ef610c06565b6040516102fc9190612c43565b60405180910390f35b61030d610c0f565b60405161031a91906129b0565b60405180910390f35b61033d600480360381019061033891906122ef565b610c35565b60405161034a91906129cb565b60405180910390f35b61035b610ce1565b60405161036891906129b0565b60405180910390f35b610379610d07565b60405161038691906129b0565b60405180910390f35b6103a960048036038101906103a491906123a2565b610d2d565b005b6103c560048036038101906103c091906121b2565b610ee0565b6040516103d29190612c28565b60405180910390f35b6103f560048036038101906103f091906121b2565b610ef8565b6040516104029190612c28565b60405180910390f35b6104256004803603810190610420919061232b565b610f40565b6040516104329190612c28565b60405180910390f35b6104436110b1565b60405161045091906129b0565b60405180910390f35b610473600480360381019061046e91906123a2565b6110d7565b005b61048f600480360381019061048a91906121b2565b61124b565b005b6104ab60048036038101906104a691906121b2565b611326565b6040516104b89190612c28565b60405180910390f35b6104db60048036038101906104d691906123a2565b61133e565b005b6104e56114b5565b6040516104f291906129e6565b60405180910390f35b610515600480360381019061051091906123a2565b611547565b005b61051f6116be565b60405161052c91906129b0565b60405180910390f35b61054f600480360381019061054a91906122ef565b6116e4565b60405161055c91906129cb565b60405180910390f35b61057f600480360381019061057a91906122ef565b6117cf565b60405161058c91906129cb565b60405180910390f35b6105af60048036038101906105aa91906123a2565b6117ed565b005b6105cb60048036038101906105c691906123a2565b611908565b005b6105d5611a7f565b6040516105e29190612c28565b60405180910390f35b6105f3611a85565b60405161060091906129b0565b60405180910390f35b610623600480360381019061061e91906122ef565b611aab565b005b61063f600480360381019061063a91906121db565b611c4b565b60405161064c9190612c28565b60405180910390f35b60606003805461066490612e17565b80601f016020809104026020016040519081016040528092919081815260200182805461069090612e17565b80156106dd5780601f106106b2576101008083540402835291602001916106dd565b820191906000526020600020905b8154815290600101906020018083116106c057829003601f168201915b5050505050905090565b600b60009054906101000a900473ffffffffffffffffffffffffffffffffffffffff1673ffffffffffffffffffffffffffffffffffffffff16610728611cd2565b73ffffffffffffffffffffffffffffffffffffffff161461077e576040517f08c379a000000000000000000000000000000000000000000000000000000000815260040161077590612c08565b60405180910390fd5b6000600f600061078c611cd2565b73ffffffffffffffffffffffffffffffffffffffff1673ffffffffffffffffffffffffffffffffffffffff1681526020019081526020016000205490506000816a01a784379d99db420000006107e29190612d5b565b905080831115610827576040517f08c379a000000000000000000000000000000000000000000000000000000000815260040161081e90612ae8565b60405180910390fd5b82600f6000610834611cd2565b73ffffffffffffffffffffffffffffffffffffffff1673ffffffffffffffffffffffffffffffffffffffff168152602001908152602001600020600082825461087d9190612c7a565b9250508190555061089630610890611cd2565b85611cda565b505050565b60006108af6108a8611cd2565b8484611f5b565b6001905092915050565b600760009054906101000a900473ffffffffffffffffffffffffffffffffffffffff1681565b6000600254905090565b600660009054906101000a900473ffffffffffffffffffffffffffffffffffffffff1673ffffffffffffffffffffffffffffffffffffffff1661092a611cd2565b73ffffffffffffffffffffffffffffffffffffffff1614610980576040517f08c379a000000000000000000000000000000000000000000000000000000000815260040161097790612bc8565b60405180910390fd5b85600760006101000a81548173ffffffffffffffffffffffffffffffffffffffff021916908373ffffffffffffffffffffffffffffffffffffffff16021790555084600860006101000a81548173ffffffffffffffffffffffffffffffffffffffff021916908373ffffffffffffffffffffffffffffffffffffffff16021790555083600960006101000a81548173ffffffffffffffffffffffffffffffffffffffff021916908373ffffffffffffffffffffffffffffffffffffffff16021790555082600a60006101000a81548173ffffffffffffffffffffffffffffffffffffffff021916908373ffffffffffffffffffffffffffffffffffffffff16021790555081600b60006101000a81548173ffffffffffffffffffffffffffffffffffffffff021916908373ffffffffffffffffffffffffffffffffffffffff16021790555080600c60006101000a81548173ffffffffffffffffffffffffffffffffffffffff021916908373ffffffffffffffffffffffffffffffffffffffff160217905550505050505050565b6000610b1b848484611cda565b6000600160008673ffffffffffffffffffffffffffffffffffffffff1673ffffffffffffffffffffffffffffffffffffffff1681526020019081526020016000206000610b66611cd2565b73ffffffffffffffffffffffffffffffffffffffff1673ffffffffffffffffffffffffffffffffffffffff16815260200190815260200160002054905082811015610be6576040517f08c379a0000000000000000000000000000000000000000000000000000000008152600401610bdd90612b28565b60405180910390fd5b610bfa85610bf2611cd2565b858403611f5b565b60019150509392505050565b60006012905090565b600860009054906101000a900473ffffffffffffffffffffffffffffffffffffffff1681565b6000610cd7610c42611cd2565b848460016000610c50611cd2565b73ffffffffffffffffffffffffffffffffffffffff1673ffffffffffffffffffffffffffffffffffffffff16815260200190815260200160002060008873ffffffffffffffffffffffffffffffffffffffff1673ffffffffffffffffffffffffffffffffffffffff16815260200190815260200160002054610cd29190612c7a565b611f5b565b6001905092915050565b600660009054906101000a900473ffffffffffffffffffffffffffffffffffffffff1681565b600960009054906101000a900473ffffffffffffffffffffffffffffffffffffffff1681565b600760009054906101000a900473ffffffffffffffffffffffffffffffffffffffff1673ffffffffffffffffffffffffffffffffffffffff16610d6e611cd2565b73ffffffffffffffffffffffffffffffffffffffff1614610dc4576040517f08c379a0000000000000000000000000000000000000000000000000000000008152600401610dbb90612ac8565b60405180910390fd5b6000600f6000610dd2611cd2565b73ffffffffffffffffffffffffffffffffffffffff1673ffffffffffffffffffffffffffffffffffffffff16815260200190815260200160002054905060008169d3c21bcecceda1000000610e279190612d5b565b905080831115610e6c576040517f08c379a0000000000000000000000000000000000000000000000000000000008152600401610e6390612ae8565b60405180910390fd5b82600f6000610e79611cd2565b73ffffffffffffffffffffffffffffffffffffffff1673ffffffffffffffffffffffffffffffffffffffff1681526020019081526020016000206000828254610ec29190612c7a565b92505081905550610edb30610ed5611cd2565b85611cda565b505050565b600d6020528060005260406000206000915090505481565b60008060008373ffffffffffffffffffffffffffffffffffffffff1673ffffffffffffffffffffffffffffffffffffffff168152602001908152602001600020549050919050565b600080610f64603c60055442610f569190612d5b565b61212690919063ffffffff16565b90506000600f60008973ffffffffffffffffffffffffffffffffffffffff1673ffffffffffffffffffffffffffffffffffffffff1681526020019081526020016000205490506000808814610fdc57610fd96064610fcb8a8861213c90919063ffffffff16565b61212690919063ffffffff16565b90505b86831015610ffa578181610ff09190612d5b565b93505050506110a8565b600061102187611013848961215290919063ffffffff16565b61212690919063ffffffff16565b9050600088856110319190612d5b565b9050600061105a8461104c858561213c90919063ffffffff16565b61216890919063ffffffff16565b905084811161107257600096505050505050506110a8565b878111156110935784886110869190612d5b565b96505050505050506110a8565b848161109f9190612d5b565b96505050505050505b95945050505050565b600c60009054906101000a900473ffffffffffffffffffffffffffffffffffffffff1681565b600c60009054906101000a900473ffffffffffffffffffffffffffffffffffffffff1673ffffffffffffffffffffffffffffffffffffffff16611118611cd2565b73ffffffffffffffffffffffffffffffffffffffff161461116e576040517f08c379a000000000000000000000000000000000000000000000000000000000815260040161116590612a48565b60405180910390fd5b600061119361117b611cd2565b600080620402906a05ca4ec2a79a7f67000000610f40565b9050808211156111d8576040517f08c379a00000000000000000000000000000000000000000000000000000000081526004016111cf90612ae8565b60405180910390fd5b81600f60006111e5611cd2565b73ffffffffffffffffffffffffffffffffffffffff1673ffffffffffffffffffffffffffffffffffffffff168152602001908152602001600020600082825461122e9190612c7a565b9250508190555061124730611241611cd2565b84611cda565b5050565b600660009054906101000a900473ffffffffffffffffffffffffffffffffffffffff1673ffffffffffffffffffffffffffffffffffffffff1661128c611cd2565b73ffffffffffffffffffffffffffffffffffffffff16146112e2576040517f08c379a00000000000000000000000000000000000000000000000000000000081526004016112d990612bc8565b60405180910390fd5b80600660006101000a81548173ffffffffffffffffffffffffffffffffffffffff021916908373ffffffffffffffffffffffffffffffffffffffff16021790555050565b600f6020528060005260406000206000915090505481565b600860009054906101000a900473ffffffffffffffffffffffffffffffffffffffff1673ffffffffffffffffffffffffffffffffffffffff1661137f611cd2565b73ffffffffffffffffffffffffffffffffffffffff16146113d5576040517f08c379a00000000000000000000000000000000000000000000000000000000081526004016113cc90612a88565b60405180910390fd5b60006113fd6113e2611cd2565b600062040290620c07b16a108b2a2c28029094000000610f40565b905080821115611442576040517f08c379a000000000000000000000000000000000000000000000000000000000815260040161143990612ae8565b60405180910390fd5b81600f600061144f611cd2565b73ffffffffffffffffffffffffffffffffffffffff1673ffffffffffffffffffffffffffffffffffffffff16815260200190815260200160002060008282546114989190612c7a565b925050819055506114b1306114ab611cd2565b84611cda565b5050565b6060600480546114c490612e17565b80601f01602080910402602001604051908101604052809291908181526020018280546114f090612e17565b801561153d5780601f106115125761010080835404028352916020019161153d565b820191906000526020600020905b81548152906001019060200180831161152057829003601f168201915b5050505050905090565b600960009054906101000a900473ffffffffffffffffffffffffffffffffffffffff1673ffffffffffffffffffffffffffffffffffffffff16611588611cd2565b73ffffffffffffffffffffffffffffffffffffffff16146115de576040517f08c379a00000000000000000000000000000000000000000000000000000000081526004016115d590612b08565b60405180910390fd5b60006116066115eb611cd2565b60006202014862100a426a14adf4b7320334b9000000610f40565b90508082111561164b576040517f08c379a000000000000000000000000000000000000000000000000000000000815260040161164290612ae8565b60405180910390fd5b81600f6000611658611cd2565b73ffffffffffffffffffffffffffffffffffffffff1673ffffffffffffffffffffffffffffffffffffffff16815260200190815260200160002060008282546116a19190612c7a565b925050819055506116ba306116b4611cd2565b84611cda565b5050565b600b60009054906101000a900473ffffffffffffffffffffffffffffffffffffffff1681565b600080600160006116f3611cd2565b73ffffffffffffffffffffffffffffffffffffffff1673ffffffffffffffffffffffffffffffffffffffff16815260200190815260200160002060008573ffffffffffffffffffffffffffffffffffffffff1673ffffffffffffffffffffffffffffffffffffffff168152602001908152602001600020549050828110156117b0576040517f08c379a00000000000000000000000000000000000000000000000000000000081526004016117a790612be8565b60405180910390fd5b6117c46117bb611cd2565b85858403611f5b565b600191505092915050565b60006117e36117dc611cd2565b8484611cda565b6001905092915050565b60006118506117fa611cd2565b600a6201563062040290600d6000611810611cd2565b73ffffffffffffffffffffffffffffffffffffffff1673ffffffffffffffffffffffffffffffffffffffff16815260200190815260200160002054610f40565b905080821115611895576040517f08c379a000000000000000000000000000000000000000000000000000000000815260040161188c90612ae8565b60405180910390fd5b81600f60006118a2611cd2565b73ffffffffffffffffffffffffffffffffffffffff1673ffffffffffffffffffffffffffffffffffffffff16815260200190815260200160002060008282546118eb9190612c7a565b92505081905550611904306118fe611cd2565b84611cda565b5050565b600a60009054906101000a900473ffffffffffffffffffffffffffffffffffffffff1673ffffffffffffffffffffffffffffffffffffffff16611949611cd2565b73ffffffffffffffffffffffffffffffffffffffff161461199f576040517f08c379a000000000000000000000000000000000000000000000000000000000815260040161199690612ba8565b60405180910390fd5b60006119c76119ac611cd2565b60006204029062100a426a108b2a2c28029094000000610f40565b905080821115611a0c576040517f08c379a0000000000000000000000000000000000000000000000000000000008152600401611a0390612ae8565b60405180910390fd5b81600f6000611a19611cd2565b73ffffffffffffffffffffffffffffffffffffffff1673ffffffffffffffffffffffffffffffffffffffff1681526020019081526020016000206000828254611a629190612c7a565b92505081905550611a7b30611a75611cd2565b84611cda565b5050565b600e5481565b600a60009054906101000a900473ffffffffffffffffffffffffffffffffffffffff1681565b600660009054906101000a900473ffffffffffffffffffffffffffffffffffffffff1673ffffffffffffffffffffffffffffffffffffffff16611aec611cd2565b73ffffffffffffffffffffffffffffffffffffffff1614611b42576040517f08c379a0000000000000000000000000000000000000000000000000000000008152600401611b3990612b48565b60405180910390fd5b600d60008373ffffffffffffffffffffffffffffffffffffffff1673ffffffffffffffffffffffffffffffffffffffff16815260200190815260200160002054600e6000828254611b939190612d5b565b9250508190555080600e6000828254611bac9190612c7a565b925050819055506a14adf4b7320334b9000000600e541115611c03576040517f08c379a0000000000000000000000000000000000000000000000000000000008152600401611bfa90612aa8565b60405180910390fd5b80600d60008473ffffffffffffffffffffffffffffffffffffffff1673ffffffffffffffffffffffffffffffffffffffff168152602001908152602001600020819055505050565b6000600160008473ffffffffffffffffffffffffffffffffffffffff1673ffffffffffffffffffffffffffffffffffffffff16815260200190815260200160002060008373ffffffffffffffffffffffffffffffffffffffff1673ffffffffffffffffffffffffffffffffffffffff16815260200190815260200160002054905092915050565b600033905090565b600073ffffffffffffffffffffffffffffffffffffffff168373ffffffffffffffffffffffffffffffffffffffff161415611d4a576040517f08c379a0000000000000000000000000000000000000000000000000000000008152600401611d4190612b68565b60405180910390fd5b600073ffffffffffffffffffffffffffffffffffffffff168273ffffffffffffffffffffffffffffffffffffffff161415611dba576040517f08c379a0000000000000000000000000000000000000000000000000000000008152600401611db190612a08565b60405180910390fd5b611dc583838361217e565b60008060008573ffffffffffffffffffffffffffffffffffffffff1673ffffffffffffffffffffffffffffffffffffffff16815260200190815260200160002054905081811015611e4b576040517f08c379a0000000000000000000000000000000000000000000000000000000008152600401611e4290612a68565b60405180910390fd5b8181036000808673ffffffffffffffffffffffffffffffffffffffff1673ffffffffffffffffffffffffffffffffffffffff16815260200190815260200160002081905550816000808573ffffffffffffffffffffffffffffffffffffffff1673ffffffffffffffffffffffffffffffffffffffff1681526020019081526020016000206000828254611ede9190612c7a565b925050819055508273ffffffffffffffffffffffffffffffffffffffff168473ffffffffffffffffffffffffffffffffffffffff167fddf252ad1be2c89b69c2b068fc378daa952ba7f163c4a11628f55a4df523b3ef84604051611f429190612c28565b60405180910390a3611f55848484612183565b50505050565b600073ffffffffffffffffffffffffffffffffffffffff168373ffffffffffffffffffffffffffffffffffffffff161415611fcb576040517f08c379a0000000000000000000000000000000000000000000000000000000008152600401611fc290612b88565b60405180910390fd5b600073ffffffffffffffffffffffffffffffffffffffff168273ffffffffffffffffffffffffffffffffffffffff16141561203b576040517f08c379a000000000000000000000000000000000000000000000000000000000815260040161203290612a28565b60405180910390fd5b80600160008573ffffffffffffffffffffffffffffffffffffffff1673ffffffffffffffffffffffffffffffffffffffff16815260200190815260200160002060008473ffffffffffffffffffffffffffffffffffffffff1673ffffffffffffffffffffffffffffffffffffffff168152602001908152602001600020819055508173ffffffffffffffffffffffffffffffffffffffff168373ffffffffffffffffffffffffffffffffffffffff167f8c5be1e5ebec7d5bd14f71427d1e84f3dd0314c0f7b2291e5b200ac8c7c3b925836040516121199190612c28565b60405180910390a3505050565b600081836121349190612cd0565b905092915050565b6000818361214a9190612d01565b905092915050565b600081836121609190612d5b565b905092915050565b600081836121769190612c7a565b905092915050565b505050565b505050565b60008135905061219781612ee7565b92915050565b6000813590506121ac81612efe565b92915050565b6000602082840312156121c457600080fd5b60006121d284828501612188565b91505092915050565b600080604083850312156121ee57600080fd5b60006121fc85828601612188565b925050602061220d85828601612188565b9150509250929050565b60008060008060008060c0878903121561223057600080fd5b600061223e89828a01612188565b965050602061224f89828a01612188565b955050604061226089828a01612188565b945050606061227189828a01612188565b935050608061228289828a01612188565b92505060a061229389828a01612188565b9150509295509295509295565b6000806000606084860312156122b557600080fd5b60006122c386828701612188565b93505060206122d486828701612188565b92505060406122e58682870161219d565b9150509250925092565b6000806040838503121561230257600080fd5b600061231085828601612188565b92505060206123218582860161219d565b9150509250929050565b600080600080600060a0868803121561234357600080fd5b600061235188828901612188565b95505060206123628882890161219d565b94505060406123738882890161219d565b93505060606123848882890161219d565b92505060806123958882890161219d565b9150509295509295909350565b6000602082840312156123b457600080fd5b60006123c28482850161219d565b91505092915050565b6123d481612d8f565b82525050565b6123e381612da1565b82525050565b60006123f482612c5e565b6123fe8185612c69565b935061240e818560208601612de4565b61241781612ed6565b840191505092915050565b600061242f602383612c69565b91507f45524332303a207472616e7366657220746f20746865207a65726f206164647260008301527f65737300000000000000000000000000000000000000000000000000000000006020830152604082019050919050565b6000612495602283612c69565b91507f45524332303a20617070726f766520746f20746865207a65726f20616464726560008301527f73730000000000000000000000000000000000000000000000000000000000006020830152604082019050919050565b60006124fb602883612c69565b91507f556e617574686f72697a6564206c697175696469747920696e63656e7469766560008301527f732077616c6c65740000000000000000000000000000000000000000000000006020830152604082019050919050565b6000612561602683612c69565b91507f45524332303a207472616e7366657220616d6f756e742065786365656473206260008301527f616c616e636500000000000000000000000000000000000000000000000000006020830152604082019050919050565b60006125c7601883612c69565b91507f556e617574686f72697a6564207465616d2077616c6c657400000000000000006000830152602082019050919050565b6000612607601283612c69565b91507f4d617820616d6f756e74207265616368656400000000000000000000000000006000830152602082019050919050565b6000612647601f83612c69565b91507f556e617574686f72697a6564207075626c69632073616c652077616c6c6574006000830152602082019050919050565b6000612687601883612c69565b91507f576974686472617720616d6f756e7420746f6f206869676800000000000000006000830152602082019050919050565b60006126c7601d83612c69565b91507f556e617574686f72697a65642065636f73797374656d2077616c6c65740000006000830152602082019050919050565b6000612707602883612c69565b91507f45524332303a207472616e7366657220616d6f756e742065786365656473206160008301527f6c6c6f77616e63650000000000000000000000000000000000000000000000006020830152604082019050919050565b600061276d601f83612c69565b91507f4f6e6c79206f776e65722063616e2073657420627579657220746f6b656e73006000830152602082019050919050565b60006127ad602583612c69565b91507f45524332303a207472616e736665722066726f6d20746865207a65726f20616460008301527f64726573730000000000000000000000000000000000000000000000000000006020830152604082019050919050565b6000612813602483612c69565b91507f45524332303a20617070726f76652066726f6d20746865207a65726f2061646460008301527f72657373000000000000000000000000000000000000000000000000000000006020830152604082019050919050565b6000612879601c83612c69565b91507f556e617574686f72697a65642072657365727665732077616c6c6574000000006000830152602082019050919050565b60006128b9601d83612c69565b91507f4f6e6c79206f776e65722063616e207570646174652077616c6c6574730000006000830152602082019050919050565b60006128f9602583612c69565b91507f45524332303a2064656372656173656420616c6c6f77616e63652062656c6f7760008301527f207a65726f0000000000000000000000000000000000000000000000000000006020830152604082019050919050565b600061295f601783612c69565b91507f556e617574686f72697a6564206465782077616c6c65740000000000000000006000830152602082019050919050565b61299b81612dcd565b82525050565b6129aa81612dd7565b82525050565b60006020820190506129c560008301846123cb565b92915050565b60006020820190506129e060008301846123da565b92915050565b60006020820190508181036000830152612a0081846123e9565b905092915050565b60006020820190508181036000830152612a2181612422565b9050919050565b60006020820190508181036000830152612a4181612488565b9050919050565b60006020820190508181036000830152612a61816124ee565b9050919050565b60006020820190508181036000830152612a8181612554565b9050919050565b60006020820190508181036000830152612aa1816125ba565b9050919050565b60006020820190508181036000830152612ac1816125fa565b9050919050565b60006020820190508181036000830152612ae18161263a565b9050919050565b60006020820190508181036000830152612b018161267a565b9050919050565b60006020820190508181036000830152612b21816126ba565b9050919050565b60006020820190508181036000830152612b41816126fa565b9050919050565b60006020820190508181036000830152612b6181612760565b9050919050565b60006020820190508181036000830152612b81816127a0565b9050919050565b60006020820190508181036000830152612ba181612806565b9050919050565b60006020820190508181036000830152612bc18161286c565b9050919050565b60006020820190508181036000830152612be1816128ac565b9050919050565b60006020820190508181036000830152612c01816128ec565b9050919050565b60006020820190508181036000830152612c2181612952565b9050919050565b6000602082019050612c3d6000830184612992565b92915050565b6000602082019050612c5860008301846129a1565b92915050565b600081519050919050565b600082825260208201905092915050565b6000612c8582612dcd565b9150612c9083612dcd565b9250827fffffffffffffffffffffffffffffffffffffffffffffffffffffffffffffffff03821115612cc557612cc4612e49565b5b828201905092915050565b6000612cdb82612dcd565b9150612ce683612dcd565b925082612cf657612cf5612e78565b5b828204905092915050565b6000612d0c82612dcd565b9150612d1783612dcd565b9250817fffffffffffffffffffffffffffffffffffffffffffffffffffffffffffffffff0483118215151615612d5057612d4f612e49565b5b828202905092915050565b6000612d6682612dcd565b9150612d7183612dcd565b925082821015612d8457612d83612e49565b5b828203905092915050565b6000612d9a82612dad565b9050919050565b60008115159050919050565b600073ffffffffffffffffffffffffffffffffffffffff82169050919050565b6000819050919050565b600060ff82169050919050565b60005b83811015612e02578082015181840152602081019050612de7565b83811115612e11576000848401525b50505050565b60006002820490506001821680612e2f57607f821691505b60208210811415612e4357612e42612ea7565b5b50919050565b7f4e487b7100000000000000000000000000000000000000000000000000000000600052601160045260246000fd5b7f4e487b7100000000000000000000000000000000000000000000000000000000600052601260045260246000fd5b7f4e487b7100000000000000000000000000000000000000000000000000000000600052602260045260246000fd5b6000601f19601f8301169050919050565b612ef081612d8f565b8114612efb57600080fd5b50565b612f0781612dcd565b8114612f1257600080fd5b5056fea2646970667358221220ccc8c67ea9958b10a820667e927b8d82bee4a8ecfbddb00660b5e5c4b10b139164736f6c63430008000033",
  "immutableReferences": {},
  "source": "pragma solidity ^0.8.0;\n\nimport \"openzeppelin-solidity/contracts/token/ERC20/ERC20.sol\";\nimport \"openzeppelin-solidity/contracts/utils/math/SafeMath.sol\";\n\ncontract EnvoyToken is ERC20 {\n\n  using SafeMath for uint256;\n\n  //\n  // ******************* VARIABLES *******************\n  //\n\n  // Deploy time\n  uint256 private _deployTime = block.timestamp;\n\n  // Contract owner\n  address public _ownerWallet;\n\n  // Public sale - 1M\n  address public _publicSaleWallet;\n  // Team - 20M\n  address public _teamWallet;\n  // Ecosystem - 25M\n  address public _ecosystemWallet;\n  // Advisors - 20M\n  address public _reservesWallet;\n  // DEX - 2M\n  address public _dexWallet;\n  // Liquidity incentives - 7M\n  address public _liqWallet;\n\n  // Amount of tokens per buyer in private sale - 25M\n  mapping(address => uint256) public _buyerTokens;\n\n  // Amount of tokens assigned to buyers\n  uint256 public _totalBuyerTokens;\n\n  // Amount of tokens a wallet has withdrawn already\n  mapping(address => uint256) public _walletTokensWithdrawn;\n\n\n  //\n  // ******************* SETUP *******************\n  //\n\n  constructor (string memory name, string memory symbol) public ERC20(name, symbol) {\n\n    // Set owner wallet\n    _ownerWallet = _msgSender();\n\n    // Mint 100M tokens for contract\n    _mint(address(this), 100000000000000000000000000);\n  }\n\n  //\n  // ******************* WALLETS SETUP *******************\n  //\n\n  // Owner can update owner\n  function updateOwner(address owner) public {\n    require(_msgSender() == _ownerWallet, \"Only owner can update wallets\");\n\n    _ownerWallet = owner; \n  }\n\n  // Update wallets\n  function updateWallets(address publicSale, address team, address ecosystem, address reserves, address dex, address liq) public {\n    require(_msgSender() == _ownerWallet, \"Only owner can update wallets\");\n\n    _publicSaleWallet = publicSale; \n    _teamWallet = team;\n    _ecosystemWallet = ecosystem;\n    _reservesWallet = reserves;\n    _dexWallet = dex;\n    _liqWallet = liq;\n  }\n\n  // Update buyer tokens\n  function setBuyerTokens(address buyer, uint256 tokenAmount) public {\n    require(_msgSender() == _ownerWallet, \"Only owner can set buyer tokens\");\n\n    // Update total\n    _totalBuyerTokens -= _buyerTokens[buyer];\n    _totalBuyerTokens += tokenAmount;\n\n    // Check if enough tokens left, can max assign 25M\n    require(_totalBuyerTokens <= 25000000000000000000000000, \"Max amount reached\");\n\n    // Update map\n    _buyerTokens[buyer] = tokenAmount;\n  }\n\n  //\n  // ******************* OWNER *******************\n  //\n\n  function publicSaleWithdraw(uint256 tokenAmount) public {\n    require(_msgSender() == _publicSaleWallet, \"Unauthorized public sale wallet\");\n\n    uint256 hasWithdrawn = _walletTokensWithdrawn[_msgSender()];\n\n    // Total = 1M instant\n    uint256 canWithdraw = 1000000000000000000000000 - hasWithdrawn;\n\n    require(tokenAmount <= canWithdraw, \"Withdraw amount too high\");\n\n    _walletTokensWithdrawn[_msgSender()] += tokenAmount;\n\n    _transfer(address(this), _msgSender(), tokenAmount);    \n  }\n\n  function teamWithdraw(uint256 tokenAmount) public {\n    require(_msgSender() == _teamWallet, \"Unauthorized team wallet\");\n\n    // Cliff = 6 months = 262800 minutes\n    // Vesting = 18 months 788401 minutes\n    // Total = 20M\n    uint256 canWithdraw = walletCanWithdraw(_msgSender(), 0, 262800, 788401, 20000000000000000000000000);\n    \n    require(tokenAmount <= canWithdraw, \"Withdraw amount too high\");\n\n    _walletTokensWithdrawn[_msgSender()] += tokenAmount;\n\n    _transfer(address(this), _msgSender(), tokenAmount);  \n  }\n\n  function ecosystemWithdraw(uint256 tokenAmount) public {\n    require(_msgSender() == _ecosystemWallet, \"Unauthorized ecosystem wallet\");\n\n    // Cliff = 3 months = 131400 minutes\n    // Vesting = 24 months = 1051202 minutes\n    // Total = 25M\n    uint256 canWithdraw = walletCanWithdraw(_msgSender(), 0, 131400, 1051202, 25000000000000000000000000);\n    \n    require(tokenAmount <= canWithdraw, \"Withdraw amount too high\");\n\n    _walletTokensWithdrawn[_msgSender()] += tokenAmount;\n\n    _transfer(address(this), _msgSender(), tokenAmount);  \n  }\n\n  function reservesWithdraw(uint256 tokenAmount) public {\n    require(_msgSender() == _reservesWallet, \"Unauthorized reserves wallet\");\n\n    // Cliff = 6 months = 262800 minutes\n    // Vesting = 24 months = 1051202 minutes\n    // Total = 20M\n    uint256 canWithdraw = walletCanWithdraw(_msgSender(), 0, 262800, 1051202, 20000000000000000000000000);\n    \n    require(tokenAmount <= canWithdraw, \"Withdraw amount too high\");\n\n    _walletTokensWithdrawn[_msgSender()] += tokenAmount;\n\n    _transfer(address(this), _msgSender(), tokenAmount);  \n  }\n\n  function dexWithdraw(uint256 tokenAmount) public {\n    require(_msgSender() == _dexWallet, \"Unauthorized dex wallet\");\n\n    uint256 hasWithdrawn = _walletTokensWithdrawn[_msgSender()];\n\n    // Total = 7M instant\n    uint256 canWithdraw = 2000000000000000000000000 - hasWithdrawn;\n\n    require(tokenAmount <= canWithdraw, \"Withdraw amount too high\");\n\n    _walletTokensWithdrawn[_msgSender()] += tokenAmount;\n\n    _transfer(address(this), _msgSender(), tokenAmount);    \n  }\n\n  function liqWithdraw(uint256 tokenAmount) public {\n    require(_msgSender() == _liqWallet, \"Unauthorized liquidity incentives wallet\");\n\n    // Cliff = 0\n    // Vesting = 6 months = 262800 minutes\n    // Total = 7M\n    uint256 canWithdraw = walletCanWithdraw(_msgSender(), 0, 0, 262800, 7000000000000000000000000);\n    \n    require(tokenAmount <= canWithdraw, \"Withdraw amount too high\");\n\n    _walletTokensWithdrawn[_msgSender()] += tokenAmount;\n\n    _transfer(address(this), _msgSender(), tokenAmount);  \n  }\n\n\n  function buyerWithdraw(uint256 tokenAmount) public {\n    \n    // TGE: 10%\n    // Cliff = 2 months = 87600 minutes\n    // Vesting = 6 months = 262800 minutes\n    uint256 canWithdraw = walletCanWithdraw(_msgSender(), 10, 87600, 262800, _buyerTokens[_msgSender()]);\n    \n    require(tokenAmount <= canWithdraw, \"Withdraw amount too high\");\n\n    _walletTokensWithdrawn[_msgSender()] += tokenAmount;\n\n    _transfer(address(this), _msgSender(), tokenAmount);    \n  }\n\n  //\n  // ******************* UNLOCK CALCULATION *******************\n  //\n\n  function walletCanWithdraw(address wallet, uint256 initialPercentage, uint256 cliffMinutes, uint256 vestingMinutes, uint256 totalTokens) public view returns(uint256) {\n    \n    uint256 minutesDiff = (block.timestamp - _deployTime).div(60);\n\n    // Tokens already withdrawn\n    uint256 withdrawnTokens = _walletTokensWithdrawn[wallet];\n\n    // Initial tokens\n    uint256 initialTokens = 0;\n    if (initialPercentage != 0) {\n      initialTokens = totalTokens.mul(initialPercentage).div(100);\n    }\n\n    // Cliff not ended\n    if (minutesDiff < uint256(cliffMinutes)) {\n      return initialTokens - withdrawnTokens;\n    }\n\n    // Tokens per minute over vesting period\n    uint256 buyerTokensPerMinute = totalTokens.sub(initialTokens).div(vestingMinutes); \n\n    // Advanced minutes minus cliff\n    uint256 unlockedMinutes = minutesDiff - uint256(cliffMinutes); \n\n    // Unlocked minutes * tokens per minutes + initial tokens\n    uint256 unlockedTokens = unlockedMinutes.mul(buyerTokensPerMinute).add(initialTokens); \n    \n    // No extra tokens unlocked\n    if (unlockedTokens <= withdrawnTokens) {\n      return 0;\n    }\n\n    // Check if buyer reached max\n    if (unlockedTokens > totalTokens) {\n      return totalTokens - withdrawnTokens;\n    }\n\n    // Result\n    return unlockedTokens - withdrawnTokens;\n  }\n\n}\n",
  "sourcePath": "/Users/nieldeckx/Development/Envoy-Token/Contracts/contracts/EnvoyToken.sol",
  "compiler": {
    "name": "solc",
    "version": "0.8.0+commit.c7dfd78e.Emscripten.clang"
  },
  "schemaVersion": "3.4.1",
  "updatedAt": "2021-08-23T16:15:31.642Z",
  "networkType": "ethereum",
  "devdoc": {
    "kind": "dev",
    "methods": {
      "allowance(address,address)": {
        "details": "See {IERC20-allowance}."
      },
      "approve(address,uint256)": {
        "details": "See {IERC20-approve}. Requirements: - `spender` cannot be the zero address."
      },
      "balanceOf(address)": {
        "details": "See {IERC20-balanceOf}."
      },
      "decimals()": {
        "details": "Returns the number of decimals used to get its user representation. For example, if `decimals` equals `2`, a balance of `505` tokens should be displayed to a user as `5,05` (`505 / 10 ** 2`). Tokens usually opt for a value of 18, imitating the relationship between Ether and Wei. This is the value {ERC20} uses, unless this function is overridden; NOTE: This information is only used for _display_ purposes: it in no way affects any of the arithmetic of the contract, including {IERC20-balanceOf} and {IERC20-transfer}."
      },
      "decreaseAllowance(address,uint256)": {
        "details": "Atomically decreases the allowance granted to `spender` by the caller. This is an alternative to {approve} that can be used as a mitigation for problems described in {IERC20-approve}. Emits an {Approval} event indicating the updated allowance. Requirements: - `spender` cannot be the zero address. - `spender` must have allowance for the caller of at least `subtractedValue`."
      },
      "increaseAllowance(address,uint256)": {
        "details": "Atomically increases the allowance granted to `spender` by the caller. This is an alternative to {approve} that can be used as a mitigation for problems described in {IERC20-approve}. Emits an {Approval} event indicating the updated allowance. Requirements: - `spender` cannot be the zero address."
      },
      "name()": {
        "details": "Returns the name of the token."
      },
      "symbol()": {
        "details": "Returns the symbol of the token, usually a shorter version of the name."
      },
      "totalSupply()": {
        "details": "See {IERC20-totalSupply}."
      },
      "transfer(address,uint256)": {
        "details": "See {IERC20-transfer}. Requirements: - `recipient` cannot be the zero address. - the caller must have a balance of at least `amount`."
      },
      "transferFrom(address,address,uint256)": {
        "details": "See {IERC20-transferFrom}. Emits an {Approval} event indicating the updated allowance. This is not required by the EIP. See the note at the beginning of {ERC20}. Requirements: - `sender` and `recipient` cannot be the zero address. - `sender` must have a balance of at least `amount`. - the caller must have allowance for ``sender``'s tokens of at least `amount`."
      }
    },
    "version": 1
  },
  "userdoc": {
    "kind": "user",
    "methods": {},
    "version": 1
  }
}