{
  "contractName": "EnvoyToken",
  "abi": [
    {
      "inputs": [
        {
          "internalType": "string",
          "name": "name",
          "type": "string"
        },
        {
          "internalType": "string",
          "name": "symbol",
          "type": "string"
        }
      ],
      "stateMutability": "nonpayable",
      "type": "constructor"
    },
    {
      "anonymous": false,
      "inputs": [
        {
          "indexed": true,
          "internalType": "address",
          "name": "owner",
          "type": "address"
        },
        {
          "indexed": true,
          "internalType": "address",
          "name": "spender",
          "type": "address"
        },
        {
          "indexed": false,
          "internalType": "uint256",
          "name": "value",
          "type": "uint256"
        }
      ],
      "name": "Approval",
      "type": "event"
    },
    {
      "anonymous": false,
      "inputs": [
        {
          "indexed": true,
          "internalType": "address",
          "name": "from",
          "type": "address"
        },
        {
          "indexed": true,
          "internalType": "address",
          "name": "to",
          "type": "address"
        },
        {
          "indexed": false,
          "internalType": "uint256",
          "name": "value",
          "type": "uint256"
        }
      ],
      "name": "Transfer",
      "type": "event"
    },
    {
      "inputs": [
        {
          "internalType": "address",
          "name": "",
          "type": "address"
        }
      ],
      "name": "_buyerTokens",
      "outputs": [
        {
          "internalType": "uint256",
          "name": "",
          "type": "uint256"
        }
      ],
      "stateMutability": "view",
      "type": "function",
      "constant": true
    },
    {
      "inputs": [],
      "name": "_dexWallet",
      "outputs": [
        {
          "internalType": "address",
          "name": "",
          "type": "address"
        }
      ],
      "stateMutability": "view",
      "type": "function",
      "constant": true
    },
    {
      "inputs": [],
      "name": "_ecosystemWallet",
      "outputs": [
        {
          "internalType": "address",
          "name": "",
          "type": "address"
        }
      ],
      "stateMutability": "view",
      "type": "function",
      "constant": true
    },
    {
      "inputs": [],
      "name": "_liqWallet",
      "outputs": [
        {
          "internalType": "address",
          "name": "",
          "type": "address"
        }
      ],
      "stateMutability": "view",
      "type": "function",
      "constant": true
    },
    {
      "inputs": [],
      "name": "_ownerWallet",
      "outputs": [
        {
          "internalType": "address",
          "name": "",
          "type": "address"
        }
      ],
      "stateMutability": "view",
      "type": "function",
      "constant": true
    },
    {
      "inputs": [],
      "name": "_publicSaleWallet",
      "outputs": [
        {
          "internalType": "address",
          "name": "",
          "type": "address"
        }
      ],
      "stateMutability": "view",
      "type": "function",
      "constant": true
    },
    {
      "inputs": [],
      "name": "_reservesWallet",
      "outputs": [
        {
          "internalType": "address",
          "name": "",
          "type": "address"
        }
      ],
      "stateMutability": "view",
      "type": "function",
      "constant": true
    },
    {
      "inputs": [],
      "name": "_teamWallet",
      "outputs": [
        {
          "internalType": "address",
          "name": "",
          "type": "address"
        }
      ],
      "stateMutability": "view",
      "type": "function",
      "constant": true
    },
    {
      "inputs": [],
      "name": "_totalBuyerTokens",
      "outputs": [
        {
          "internalType": "uint256",
          "name": "",
          "type": "uint256"
        }
      ],
      "stateMutability": "view",
      "type": "function",
      "constant": true
    },
    {
      "inputs": [
        {
          "internalType": "string",
          "name": "",
          "type": "string"
        },
        {
          "internalType": "address",
          "name": "",
          "type": "address"
        }
      ],
      "name": "_walletTokensWithdrawn",
      "outputs": [
        {
          "internalType": "uint256",
          "name": "",
          "type": "uint256"
        }
      ],
      "stateMutability": "view",
      "type": "function",
      "constant": true
    },
    {
      "inputs": [
        {
          "internalType": "address",
          "name": "owner",
          "type": "address"
        },
        {
          "internalType": "address",
          "name": "spender",
          "type": "address"
        }
      ],
      "name": "allowance",
      "outputs": [
        {
          "internalType": "uint256",
          "name": "",
          "type": "uint256"
        }
      ],
      "stateMutability": "view",
      "type": "function",
      "constant": true
    },
    {
      "inputs": [
        {
          "internalType": "address",
          "name": "spender",
          "type": "address"
        },
        {
          "internalType": "uint256",
          "name": "amount",
          "type": "uint256"
        }
      ],
      "name": "approve",
      "outputs": [
        {
          "internalType": "bool",
          "name": "",
          "type": "bool"
        }
      ],
      "stateMutability": "nonpayable",
      "type": "function"
    },
    {
      "inputs": [
        {
          "internalType": "address",
          "name": "account",
          "type": "address"
        }
      ],
      "name": "balanceOf",
      "outputs": [
        {
          "internalType": "uint256",
          "name": "",
          "type": "uint256"
        }
      ],
      "stateMutability": "view",
      "type": "function",
      "constant": true
    },
    {
      "inputs": [],
      "name": "decimals",
      "outputs": [
        {
          "internalType": "uint8",
          "name": "",
          "type": "uint8"
        }
      ],
      "stateMutability": "view",
      "type": "function",
      "constant": true
    },
    {
      "inputs": [
        {
          "internalType": "address",
          "name": "spender",
          "type": "address"
        },
        {
          "internalType": "uint256",
          "name": "subtractedValue",
          "type": "uint256"
        }
      ],
      "name": "decreaseAllowance",
      "outputs": [
        {
          "internalType": "bool",
          "name": "",
          "type": "bool"
        }
      ],
      "stateMutability": "nonpayable",
      "type": "function"
    },
    {
      "inputs": [
        {
          "internalType": "address",
          "name": "spender",
          "type": "address"
        },
        {
          "internalType": "uint256",
          "name": "addedValue",
          "type": "uint256"
        }
      ],
      "name": "increaseAllowance",
      "outputs": [
        {
          "internalType": "bool",
          "name": "",
          "type": "bool"
        }
      ],
      "stateMutability": "nonpayable",
      "type": "function"
    },
    {
      "inputs": [],
      "name": "name",
      "outputs": [
        {
          "internalType": "string",
          "name": "",
          "type": "string"
        }
      ],
      "stateMutability": "view",
      "type": "function",
      "constant": true
    },
    {
      "inputs": [],
      "name": "symbol",
      "outputs": [
        {
          "internalType": "string",
          "name": "",
          "type": "string"
        }
      ],
      "stateMutability": "view",
      "type": "function",
      "constant": true
    },
    {
      "inputs": [],
      "name": "totalSupply",
      "outputs": [
        {
          "internalType": "uint256",
          "name": "",
          "type": "uint256"
        }
      ],
      "stateMutability": "view",
      "type": "function",
      "constant": true
    },
    {
      "inputs": [
        {
          "internalType": "address",
          "name": "recipient",
          "type": "address"
        },
        {
          "internalType": "uint256",
          "name": "amount",
          "type": "uint256"
        }
      ],
      "name": "transfer",
      "outputs": [
        {
          "internalType": "bool",
          "name": "",
          "type": "bool"
        }
      ],
      "stateMutability": "nonpayable",
      "type": "function"
    },
    {
      "inputs": [
        {
          "internalType": "address",
          "name": "sender",
          "type": "address"
        },
        {
          "internalType": "address",
          "name": "recipient",
          "type": "address"
        },
        {
          "internalType": "uint256",
          "name": "amount",
          "type": "uint256"
        }
      ],
      "name": "transferFrom",
      "outputs": [
        {
          "internalType": "bool",
          "name": "",
          "type": "bool"
        }
      ],
      "stateMutability": "nonpayable",
      "type": "function"
    },
    {
      "inputs": [
        {
          "internalType": "address",
          "name": "owner",
          "type": "address"
        }
      ],
      "name": "updateOwner",
      "outputs": [],
      "stateMutability": "nonpayable",
      "type": "function"
    },
    {
      "inputs": [
        {
          "internalType": "address",
          "name": "publicSale",
          "type": "address"
        },
        {
          "internalType": "address",
          "name": "team",
          "type": "address"
        },
        {
          "internalType": "address",
          "name": "ecosystem",
          "type": "address"
        },
        {
          "internalType": "address",
          "name": "reserves",
          "type": "address"
        },
        {
          "internalType": "address",
          "name": "dex",
          "type": "address"
        },
        {
          "internalType": "address",
          "name": "liq",
          "type": "address"
        }
      ],
      "name": "updateWallets",
      "outputs": [],
      "stateMutability": "nonpayable",
      "type": "function"
    },
    {
      "inputs": [
        {
          "internalType": "address",
          "name": "buyer",
          "type": "address"
        },
        {
          "internalType": "uint256",
          "name": "tokenAmount",
          "type": "uint256"
        }
      ],
      "name": "setBuyerTokens",
      "outputs": [],
      "stateMutability": "nonpayable",
      "type": "function"
    },
    {
      "inputs": [
        {
          "internalType": "uint256",
          "name": "tokenAmount",
          "type": "uint256"
        }
      ],
      "name": "publicSaleWithdraw",
      "outputs": [],
      "stateMutability": "nonpayable",
      "type": "function"
    },
    {
      "inputs": [
        {
          "internalType": "uint256",
          "name": "tokenAmount",
          "type": "uint256"
        }
      ],
      "name": "liqWithdraw",
      "outputs": [],
      "stateMutability": "nonpayable",
      "type": "function"
    },
    {
      "inputs": [
        {
          "internalType": "uint256",
          "name": "tokenAmount",
          "type": "uint256"
        }
      ],
      "name": "teamWithdraw",
      "outputs": [],
      "stateMutability": "nonpayable",
      "type": "function"
    },
    {
      "inputs": [
        {
          "internalType": "uint256",
          "name": "tokenAmount",
          "type": "uint256"
        }
      ],
      "name": "ecosystemWithdraw",
      "outputs": [],
      "stateMutability": "nonpayable",
      "type": "function"
    },
    {
      "inputs": [
        {
          "internalType": "uint256",
          "name": "tokenAmount",
          "type": "uint256"
        }
      ],
      "name": "reservesWithdraw",
      "outputs": [],
      "stateMutability": "nonpayable",
      "type": "function"
    },
    {
      "inputs": [
        {
          "internalType": "uint256",
          "name": "tokenAmount",
          "type": "uint256"
        }
      ],
      "name": "dexWithdraw",
      "outputs": [],
      "stateMutability": "nonpayable",
      "type": "function"
    },
    {
      "inputs": [
        {
          "internalType": "uint256",
          "name": "tokenAmount",
          "type": "uint256"
        }
      ],
      "name": "buyerWithdraw",
      "outputs": [],
      "stateMutability": "nonpayable",
      "type": "function"
    },
    {
      "inputs": [
        {
          "internalType": "address",
          "name": "wallet",
          "type": "address"
        },
        {
          "internalType": "string",
          "name": "walletType",
          "type": "string"
        },
        {
          "internalType": "uint256",
          "name": "initialPercentage",
          "type": "uint256"
        },
        {
          "internalType": "uint256",
          "name": "cliffMinutes",
          "type": "uint256"
        },
        {
          "internalType": "uint256",
          "name": "vestingMinutes",
          "type": "uint256"
        },
        {
          "internalType": "uint256",
          "name": "totalTokens",
          "type": "uint256"
        }
      ],
      "name": "walletCanWithdraw",
      "outputs": [
        {
          "internalType": "uint256",
          "name": "",
          "type": "uint256"
        }
      ],
      "stateMutability": "view",
      "type": "function",
      "constant": true
    }
  ],
  "bytecode": "0x60806040526361655ca06005553480156200001957600080fd5b506040516200446c3803806200446c83398181016040528101906200003f919062000397565b818181600390805190602001906200005992919062000275565b5080600490805190602001906200007292919062000275565b50505062000085620000ea60201b60201c565b600660006101000a81548173ffffffffffffffffffffffffffffffffffffffff021916908373ffffffffffffffffffffffffffffffffffffffff160217905550620000e2306a52b7d2dcc80cd2e4000000620000f260201b60201c565b505062000674565b600033905090565b600073ffffffffffffffffffffffffffffffffffffffff168273ffffffffffffffffffffffffffffffffffffffff16141562000165576040517f08c379a00000000000000000000000000000000000000000000000000000000081526004016200015c906200045d565b60405180910390fd5b62000179600083836200026b60201b60201c565b80600260008282546200018d919062000514565b92505081905550806000808473ffffffffffffffffffffffffffffffffffffffff1673ffffffffffffffffffffffffffffffffffffffff1681526020019081526020016000206000828254620001e4919062000514565b925050819055508173ffffffffffffffffffffffffffffffffffffffff16600073ffffffffffffffffffffffffffffffffffffffff167fddf252ad1be2c89b69c2b068fc378daa952ba7f163c4a11628f55a4df523b3ef836040516200024b91906200047f565b60405180910390a362000267600083836200027060201b60201c565b5050565b505050565b505050565b8280546200028390620005b1565b90600052602060002090601f016020900481019282620002a75760008555620002f3565b82601f10620002c257805160ff1916838001178555620002f3565b82800160010185558215620002f3579182015b82811115620002f2578251825591602001919060010190620002d5565b5b50905062000302919062000306565b5090565b5b808211156200032157600081600090555060010162000307565b5090565b60006200033c6200033684620004d0565b6200049c565b9050828152602081018484840111156200035557600080fd5b620003628482856200057b565b509392505050565b600082601f8301126200037c57600080fd5b81516200038e84826020860162000325565b91505092915050565b60008060408385031215620003ab57600080fd5b600083015167ffffffffffffffff811115620003c657600080fd5b620003d4858286016200036a565b925050602083015167ffffffffffffffff811115620003f257600080fd5b62000400858286016200036a565b9150509250929050565b600062000419601f8362000503565b91507f45524332303a206d696e7420746f20746865207a65726f2061646472657373006000830152602082019050919050565b620004578162000571565b82525050565b6000602082019050818103600083015262000478816200040a565b9050919050565b60006020820190506200049660008301846200044c565b92915050565b6000604051905081810181811067ffffffffffffffff82111715620004c657620004c562000645565b5b8060405250919050565b600067ffffffffffffffff821115620004ee57620004ed62000645565b5b601f19601f8301169050602081019050919050565b600082825260208201905092915050565b6000620005218262000571565b91506200052e8362000571565b9250827fffffffffffffffffffffffffffffffffffffffffffffffffffffffffffffffff03821115620005665762000565620005e7565b5b828201905092915050565b6000819050919050565b60005b838110156200059b5780820151818401526020810190506200057e565b83811115620005ab576000848401525b50505050565b60006002820490506001821680620005ca57607f821691505b60208210811415620005e157620005e062000616565b5b50919050565b7f4e487b7100000000000000000000000000000000000000000000000000000000600052601160045260246000fd5b7f4e487b7100000000000000000000000000000000000000000000000000000000600052602260045260246000fd5b7f4e487b7100000000000000000000000000000000000000000000000000000000600052604160045260246000fd5b613de880620006846000396000f3fe608060405234801561001057600080fd5b50600436106101f05760003560e01c806370a082311161010f578063a457c2d7116100a2578063b96190d611610071578063b96190d6146105cd578063bec3fab1146105eb578063d6aedc6d14610609578063dd62ed3e14610625576101f0565b8063a457c2d714610535578063a9059cbb14610565578063b03fd85a14610595578063b620743a146105b1576101f0565b806393d60990116100de57806393d60990146104c157806395d89b41146104dd57806399c26c53146104fb5780639f1161c314610517576101f0565b806370a082311461043b5780637a0f06e71461046b57806381640a9114610489578063880cdc31146104a5576101f0565b806323b872dd116101875780634825fc0d116101565780634825fc0d146103b35780634c420743146103d15780634e5fde97146103ef57806363586f391461040b576101f0565b806323b872dd14610317578063313ce5671461034757806337e294d5146103655780633950935114610383576101f0565b8063100505b9116101c3578063100505b91461028f57806318160ddd146102ad57806322cb364e146102cb57806322fd5cea146102e7576101f0565b806306fdde03146101f557806307562e2914610213578063095ea7b31461022f5780630c790fbe1461025f575b600080fd5b6101fd610655565b60405161020a91906137b9565b60405180910390f35b61022d60048036038101906102289190612e9a565b6106e7565b005b61024960048036038101906102449190612e0a565b6108cf565b604051610256919061379e565b60405180910390f35b61027960048036038101906102749190612e46565b6108ed565b6040516102869190613a1b565b60405180910390f35b610297610928565b6040516102a49190613783565b60405180910390f35b6102b561094e565b6040516102c29190613a1b565b60405180910390f35b6102e560048036038101906102e09190612c91565b610958565b005b61030160048036038101906102fc9190612d69565b611333565b60405161030e9190613a1b565b60405180910390f35b610331600480360381019061032c9190612d1a565b6114c1565b60405161033e919061379e565b60405180910390f35b61034f6115b9565b60405161035c9190613a36565b60405180910390f35b61036d6115c2565b60405161037a9190613783565b60405180910390f35b61039d60048036038101906103989190612e0a565b6115e8565b6040516103aa919061379e565b60405180910390f35b6103bb611694565b6040516103c89190613783565b60405180910390f35b6103d96116ba565b6040516103e69190613783565b60405180910390f35b61040960048036038101906104049190612e9a565b6116e0565b005b61042560048036038101906104209190612c2c565b6118c7565b6040516104329190613a1b565b60405180910390f35b61045560048036038101906104509190612c2c565b6118df565b6040516104629190613a1b565b60405180910390f35b610473611927565b6040516104809190613783565b60405180910390f35b6104a3600480360381019061049e9190612e9a565b61194d565b005b6104bf60048036038101906104ba9190612c2c565b611b35565b005b6104db60048036038101906104d69190612e9a565b611c10565b005b6104e5611dd7565b6040516104f291906137b9565b60405180910390f35b61051560048036038101906105109190612e9a565b611e69565b005b61051f612030565b60405161052c9190613783565b60405180910390f35b61054f600480360381019061054a9190612e0a565b612056565b60405161055c919061379e565b60405180910390f35b61057f600480360381019061057a9190612e0a565b612141565b60405161058c919061379e565b60405180910390f35b6105af60048036038101906105aa9190612e9a565b61215f565b005b6105cb60048036038101906105c69190612e9a565b6122ca565b005b6105d5612491565b6040516105e29190613a1b565b60405180910390f35b6105f3612497565b6040516106009190613783565b60405180910390f35b610623600480360381019061061e9190612e0a565b6124bd565b005b61063f600480360381019061063a9190612c55565b61265d565b60405161064c9190613a1b565b60405180910390f35b60606003805461066490613c85565b80601f016020809104026020016040519081016040528092919081815260200182805461069090613c85565b80156106dd5780601f106106b2576101008083540402835291602001916106dd565b820191906000526020600020905b8154815290600101906020018083116106c057829003601f168201915b5050505050905090565b600b60009054906101000a900473ffffffffffffffffffffffffffffffffffffffff1673ffffffffffffffffffffffffffffffffffffffff166107286126e4565b73ffffffffffffffffffffffffffffffffffffffff161461077e576040517f08c379a0000000000000000000000000000000000000000000000000000000008152600401610775906139fb565b60405180910390fd5b6000600f60405161078e906136f0565b908152602001604051809103902060006107a66126e4565b73ffffffffffffffffffffffffffffffffffffffff1673ffffffffffffffffffffffffffffffffffffffff1681526020019081526020016000205490506000816a01a784379d99db420000006107fc9190613bba565b905080831115610841576040517f08c379a0000000000000000000000000000000000000000000000000000000008152600401610838906138bb565b60405180910390fd5b82600f604051610850906136f0565b908152602001604051809103902060006108686126e4565b73ffffffffffffffffffffffffffffffffffffffff1673ffffffffffffffffffffffffffffffffffffffff16815260200190815260200160002060008282546108b19190613ad9565b925050819055506108ca306108c46126e4565b856126ec565b505050565b60006108e36108dc6126e4565b848461296d565b6001905092915050565b600f82805160208101820180518482526020830160208501208183528095505050505050602052806000526040600020600091509150505481565b600760009054906101000a900473ffffffffffffffffffffffffffffffffffffffff1681565b6000600254905090565b600660009054906101000a900473ffffffffffffffffffffffffffffffffffffffff1673ffffffffffffffffffffffffffffffffffffffff166109996126e4565b73ffffffffffffffffffffffffffffffffffffffff16146109ef576040517f08c379a00000000000000000000000000000000000000000000000000000000081526004016109e6906139bb565b60405180910390fd5b600073ffffffffffffffffffffffffffffffffffffffff168673ffffffffffffffffffffffffffffffffffffffff161415610a5f576040517f08c379a0000000000000000000000000000000000000000000000000000000008152600401610a56906138fb565b60405180910390fd5b600073ffffffffffffffffffffffffffffffffffffffff168573ffffffffffffffffffffffffffffffffffffffff161415610acf576040517f08c379a0000000000000000000000000000000000000000000000000000000008152600401610ac6906138fb565b60405180910390fd5b600073ffffffffffffffffffffffffffffffffffffffff168473ffffffffffffffffffffffffffffffffffffffff161415610b3f576040517f08c379a0000000000000000000000000000000000000000000000000000000008152600401610b36906138fb565b60405180910390fd5b600073ffffffffffffffffffffffffffffffffffffffff168373ffffffffffffffffffffffffffffffffffffffff161415610baf576040517f08c379a0000000000000000000000000000000000000000000000000000000008152600401610ba6906138fb565b60405180910390fd5b600073ffffffffffffffffffffffffffffffffffffffff168273ffffffffffffffffffffffffffffffffffffffff161415610c1f576040517f08c379a0000000000000000000000000000000000000000000000000000000008152600401610c16906138fb565b60405180910390fd5b600073ffffffffffffffffffffffffffffffffffffffff168173ffffffffffffffffffffffffffffffffffffffff161415610c8f576040517f08c379a0000000000000000000000000000000000000000000000000000000008152600401610c86906138fb565b60405180910390fd5b600f604051610c9d9061371a565b90815260200160405180910390206000600760009054906101000a900473ffffffffffffffffffffffffffffffffffffffff1673ffffffffffffffffffffffffffffffffffffffff1673ffffffffffffffffffffffffffffffffffffffff16815260200190815260200160002054600f604051610d199061371a565b908152602001604051809103902060008873ffffffffffffffffffffffffffffffffffffffff1673ffffffffffffffffffffffffffffffffffffffff16815260200190815260200160002081905550600f604051610d7690613759565b90815260200160405180910390206000600860009054906101000a900473ffffffffffffffffffffffffffffffffffffffff1673ffffffffffffffffffffffffffffffffffffffff1673ffffffffffffffffffffffffffffffffffffffff16815260200190815260200160002054600f604051610df290613759565b908152602001604051809103902060008773ffffffffffffffffffffffffffffffffffffffff1673ffffffffffffffffffffffffffffffffffffffff16815260200190815260200160002081905550600f604051610e4f90613744565b90815260200160405180910390206000600960009054906101000a900473ffffffffffffffffffffffffffffffffffffffff1673ffffffffffffffffffffffffffffffffffffffff1673ffffffffffffffffffffffffffffffffffffffff16815260200190815260200160002054600f604051610ecb90613744565b908152602001604051809103902060008673ffffffffffffffffffffffffffffffffffffffff1673ffffffffffffffffffffffffffffffffffffffff16815260200190815260200160002081905550600f604051610f289061376e565b90815260200160405180910390206000600a60009054906101000a900473ffffffffffffffffffffffffffffffffffffffff1673ffffffffffffffffffffffffffffffffffffffff1673ffffffffffffffffffffffffffffffffffffffff16815260200190815260200160002054600f604051610fa49061376e565b908152602001604051809103902060008573ffffffffffffffffffffffffffffffffffffffff1673ffffffffffffffffffffffffffffffffffffffff16815260200190815260200160002081905550600f604051611001906136f0565b90815260200160405180910390206000600b60009054906101000a900473ffffffffffffffffffffffffffffffffffffffff1673ffffffffffffffffffffffffffffffffffffffff1673ffffffffffffffffffffffffffffffffffffffff16815260200190815260200160002054600f60405161107d906136f0565b908152602001604051809103902060008473ffffffffffffffffffffffffffffffffffffffff1673ffffffffffffffffffffffffffffffffffffffff16815260200190815260200160002081905550600f6040516110da90613705565b90815260200160405180910390206000600c60009054906101000a900473ffffffffffffffffffffffffffffffffffffffff1673ffffffffffffffffffffffffffffffffffffffff1673ffffffffffffffffffffffffffffffffffffffff16815260200190815260200160002054600f60405161115690613705565b908152602001604051809103902060008373ffffffffffffffffffffffffffffffffffffffff1673ffffffffffffffffffffffffffffffffffffffff1681526020019081526020016000208190555085600760006101000a81548173ffffffffffffffffffffffffffffffffffffffff021916908373ffffffffffffffffffffffffffffffffffffffff16021790555084600860006101000a81548173ffffffffffffffffffffffffffffffffffffffff021916908373ffffffffffffffffffffffffffffffffffffffff16021790555083600960006101000a81548173ffffffffffffffffffffffffffffffffffffffff021916908373ffffffffffffffffffffffffffffffffffffffff16021790555082600a60006101000a81548173ffffffffffffffffffffffffffffffffffffffff021916908373ffffffffffffffffffffffffffffffffffffffff16021790555081600b60006101000a81548173ffffffffffffffffffffffffffffffffffffffff021916908373ffffffffffffffffffffffffffffffffffffffff16021790555080600c60006101000a81548173ffffffffffffffffffffffffffffffffffffffff021916908373ffffffffffffffffffffffffffffffffffffffff160217905550505050505050565b600080611357603c600554426113499190613bba565b612b3890919063ffffffff16565b90506000600f8860405161136b91906136d9565b908152602001604051809103902060008a73ffffffffffffffffffffffffffffffffffffffff1673ffffffffffffffffffffffffffffffffffffffff16815260200190815260200160002054905060008088146113eb576113e860646113da8a88612b4e90919063ffffffff16565b612b3890919063ffffffff16565b90505b868310156114095781816113ff9190613bba565b93505050506114b7565b6000611430876114228489612b6490919063ffffffff16565b612b3890919063ffffffff16565b9050600088856114409190613bba565b905060006114698461145b8585612b4e90919063ffffffff16565b612b7a90919063ffffffff16565b905084811161148157600096505050505050506114b7565b878111156114a25784886114959190613bba565b96505050505050506114b7565b84816114ae9190613bba565b96505050505050505b9695505050505050565b60006114ce8484846126ec565b6000600160008673ffffffffffffffffffffffffffffffffffffffff1673ffffffffffffffffffffffffffffffffffffffff16815260200190815260200160002060006115196126e4565b73ffffffffffffffffffffffffffffffffffffffff1673ffffffffffffffffffffffffffffffffffffffff16815260200190815260200160002054905082811015611599576040517f08c379a00000000000000000000000000000000000000000000000000000000081526004016115909061391b565b60405180910390fd5b6115ad856115a56126e4565b85840361296d565b60019150509392505050565b60006012905090565b600860009054906101000a900473ffffffffffffffffffffffffffffffffffffffff1681565b600061168a6115f56126e4565b8484600160006116036126e4565b73ffffffffffffffffffffffffffffffffffffffff1673ffffffffffffffffffffffffffffffffffffffff16815260200190815260200160002060008873ffffffffffffffffffffffffffffffffffffffff1673ffffffffffffffffffffffffffffffffffffffff168152602001908152602001600020546116859190613ad9565b61296d565b6001905092915050565b600660009054906101000a900473ffffffffffffffffffffffffffffffffffffffff1681565b600960009054906101000a900473ffffffffffffffffffffffffffffffffffffffff1681565b600760009054906101000a900473ffffffffffffffffffffffffffffffffffffffff1673ffffffffffffffffffffffffffffffffffffffff166117216126e4565b73ffffffffffffffffffffffffffffffffffffffff1614611777576040517f08c379a000000000000000000000000000000000000000000000000000000000815260040161176e9061389b565b60405180910390fd5b6000600f6040516117879061371a565b9081526020016040518091039020600061179f6126e4565b73ffffffffffffffffffffffffffffffffffffffff1673ffffffffffffffffffffffffffffffffffffffff16815260200190815260200160002054905060008169d3c21bcecceda10000006117f49190613bba565b905080831115611839576040517f08c379a0000000000000000000000000000000000000000000000000000000008152600401611830906138bb565b60405180910390fd5b82600f6040516118489061371a565b908152602001604051809103902060006118606126e4565b73ffffffffffffffffffffffffffffffffffffffff1673ffffffffffffffffffffffffffffffffffffffff16815260200190815260200160002060008282546118a99190613ad9565b925050819055506118c2306118bc6126e4565b856126ec565b505050565b600d6020528060005260406000206000915090505481565b60008060008373ffffffffffffffffffffffffffffffffffffffff1673ffffffffffffffffffffffffffffffffffffffff168152602001908152602001600020549050919050565b600c60009054906101000a900473ffffffffffffffffffffffffffffffffffffffff1681565b600c60009054906101000a900473ffffffffffffffffffffffffffffffffffffffff1673ffffffffffffffffffffffffffffffffffffffff1661198e6126e4565b73ffffffffffffffffffffffffffffffffffffffff16146119e4576040517f08c379a00000000000000000000000000000000000000000000000000000000081526004016119db9061381b565b60405180910390fd5b6000600f6040516119f490613705565b90815260200160405180910390206000611a0c6126e4565b73ffffffffffffffffffffffffffffffffffffffff1673ffffffffffffffffffffffffffffffffffffffff1681526020019081526020016000205490506000816a05ca4ec2a79a7f67000000611a629190613bba565b905080831115611aa7576040517f08c379a0000000000000000000000000000000000000000000000000000000008152600401611a9e906138bb565b60405180910390fd5b82600f604051611ab690613705565b90815260200160405180910390206000611ace6126e4565b73ffffffffffffffffffffffffffffffffffffffff1673ffffffffffffffffffffffffffffffffffffffff1681526020019081526020016000206000828254611b179190613ad9565b92505081905550611b3030611b2a6126e4565b856126ec565b505050565b600660009054906101000a900473ffffffffffffffffffffffffffffffffffffffff1673ffffffffffffffffffffffffffffffffffffffff16611b766126e4565b73ffffffffffffffffffffffffffffffffffffffff1614611bcc576040517f08c379a0000000000000000000000000000000000000000000000000000000008152600401611bc3906139bb565b60405180910390fd5b80600660006101000a81548173ffffffffffffffffffffffffffffffffffffffff021916908373ffffffffffffffffffffffffffffffffffffffff16021790555050565b600860009054906101000a900473ffffffffffffffffffffffffffffffffffffffff1673ffffffffffffffffffffffffffffffffffffffff16611c516126e4565b73ffffffffffffffffffffffffffffffffffffffff1614611ca7576040517f08c379a0000000000000000000000000000000000000000000000000000000008152600401611c9e9061385b565b60405180910390fd5b6000611d05611cb46126e4565b6040518060400160405280600481526020017f7465616d00000000000000000000000000000000000000000000000000000000815250600062040290620c07b16a108b2a2c28029094000000611333565b905080821115611d4a576040517f08c379a0000000000000000000000000000000000000000000000000000000008152600401611d41906138bb565b60405180910390fd5b81600f604051611d5990613759565b90815260200160405180910390206000611d716126e4565b73ffffffffffffffffffffffffffffffffffffffff1673ffffffffffffffffffffffffffffffffffffffff1681526020019081526020016000206000828254611dba9190613ad9565b92505081905550611dd330611dcd6126e4565b846126ec565b5050565b606060048054611de690613c85565b80601f0160208091040260200160405190810160405280929190818152602001828054611e1290613c85565b8015611e5f5780601f10611e3457610100808354040283529160200191611e5f565b820191906000526020600020905b815481529060010190602001808311611e4257829003601f168201915b5050505050905090565b600960009054906101000a900473ffffffffffffffffffffffffffffffffffffffff1673ffffffffffffffffffffffffffffffffffffffff16611eaa6126e4565b73ffffffffffffffffffffffffffffffffffffffff1614611f00576040517f08c379a0000000000000000000000000000000000000000000000000000000008152600401611ef7906138db565b60405180910390fd5b6000611f5e611f0d6126e4565b6040518060400160405280600981526020017f65636f73797374656d000000000000000000000000000000000000000000000081525060006202014862100a426a14adf4b7320334b9000000611333565b905080821115611fa3576040517f08c379a0000000000000000000000000000000000000000000000000000000008152600401611f9a906138bb565b60405180910390fd5b81600f604051611fb290613744565b90815260200160405180910390206000611fca6126e4565b73ffffffffffffffffffffffffffffffffffffffff1673ffffffffffffffffffffffffffffffffffffffff16815260200190815260200160002060008282546120139190613ad9565b9250508190555061202c306120266126e4565b846126ec565b5050565b600b60009054906101000a900473ffffffffffffffffffffffffffffffffffffffff1681565b600080600160006120656126e4565b73ffffffffffffffffffffffffffffffffffffffff1673ffffffffffffffffffffffffffffffffffffffff16815260200190815260200160002060008573ffffffffffffffffffffffffffffffffffffffff1673ffffffffffffffffffffffffffffffffffffffff16815260200190815260200160002054905082811015612122576040517f08c379a0000000000000000000000000000000000000000000000000000000008152600401612119906139db565b60405180910390fd5b61213661212d6126e4565b8585840361296d565b600191505092915050565b600061215561214e6126e4565b84846126ec565b6001905092915050565b60006121f861216c6126e4565b6040518060400160405280600b81526020017f7072697661746573616c65000000000000000000000000000000000000000000815250600a6201563062040290600d60006121b86126e4565b73ffffffffffffffffffffffffffffffffffffffff1673ffffffffffffffffffffffffffffffffffffffff16815260200190815260200160002054611333565b90508082111561223d576040517f08c379a0000000000000000000000000000000000000000000000000000000008152600401612234906138bb565b60405180910390fd5b81600f60405161224c9061372f565b908152602001604051809103902060006122646126e4565b73ffffffffffffffffffffffffffffffffffffffff1673ffffffffffffffffffffffffffffffffffffffff16815260200190815260200160002060008282546122ad9190613ad9565b925050819055506122c6306122c06126e4565b846126ec565b5050565b600a60009054906101000a900473ffffffffffffffffffffffffffffffffffffffff1673ffffffffffffffffffffffffffffffffffffffff1661230b6126e4565b73ffffffffffffffffffffffffffffffffffffffff1614612361576040517f08c379a00000000000000000000000000000000000000000000000000000000081526004016123589061399b565b60405180910390fd5b60006123bf61236e6126e4565b6040518060400160405280600781526020017f726573657276650000000000000000000000000000000000000000000000000081525060006204029062100a426a108b2a2c28029094000000611333565b905080821115612404576040517f08c379a00000000000000000000000000000000000000000000000000000000081526004016123fb906138bb565b60405180910390fd5b81600f6040516124139061376e565b9081526020016040518091039020600061242b6126e4565b73ffffffffffffffffffffffffffffffffffffffff1673ffffffffffffffffffffffffffffffffffffffff16815260200190815260200160002060008282546124749190613ad9565b9250508190555061248d306124876126e4565b846126ec565b5050565b600e5481565b600a60009054906101000a900473ffffffffffffffffffffffffffffffffffffffff1681565b600660009054906101000a900473ffffffffffffffffffffffffffffffffffffffff1673ffffffffffffffffffffffffffffffffffffffff166124fe6126e4565b73ffffffffffffffffffffffffffffffffffffffff1614612554576040517f08c379a000000000000000000000000000000000000000000000000000000000815260040161254b9061393b565b60405180910390fd5b600d60008373ffffffffffffffffffffffffffffffffffffffff1673ffffffffffffffffffffffffffffffffffffffff16815260200190815260200160002054600e60008282546125a59190613bba565b9250508190555080600e60008282546125be9190613ad9565b925050819055506a14adf4b7320334b9000000600e541115612615576040517f08c379a000000000000000000000000000000000000000000000000000000000815260040161260c9061387b565b60405180910390fd5b80600d60008473ffffffffffffffffffffffffffffffffffffffff1673ffffffffffffffffffffffffffffffffffffffff168152602001908152602001600020819055505050565b6000600160008473ffffffffffffffffffffffffffffffffffffffff1673ffffffffffffffffffffffffffffffffffffffff16815260200190815260200160002060008373ffffffffffffffffffffffffffffffffffffffff1673ffffffffffffffffffffffffffffffffffffffff16815260200190815260200160002054905092915050565b600033905090565b600073ffffffffffffffffffffffffffffffffffffffff168373ffffffffffffffffffffffffffffffffffffffff16141561275c576040517f08c379a00000000000000000000000000000000000000000000000000000000081526004016127539061395b565b60405180910390fd5b600073ffffffffffffffffffffffffffffffffffffffff168273ffffffffffffffffffffffffffffffffffffffff1614156127cc576040517f08c379a00000000000000000000000000000000000000000000000000000000081526004016127c3906137db565b60405180910390fd5b6127d7838383612b90565b60008060008573ffffffffffffffffffffffffffffffffffffffff1673ffffffffffffffffffffffffffffffffffffffff1681526020019081526020016000205490508181101561285d576040517f08c379a00000000000000000000000000000000000000000000000000000000081526004016128549061383b565b60405180910390fd5b8181036000808673ffffffffffffffffffffffffffffffffffffffff1673ffffffffffffffffffffffffffffffffffffffff16815260200190815260200160002081905550816000808573ffffffffffffffffffffffffffffffffffffffff1673ffffffffffffffffffffffffffffffffffffffff16815260200190815260200160002060008282546128f09190613ad9565b925050819055508273ffffffffffffffffffffffffffffffffffffffff168473ffffffffffffffffffffffffffffffffffffffff167fddf252ad1be2c89b69c2b068fc378daa952ba7f163c4a11628f55a4df523b3ef846040516129549190613a1b565b60405180910390a3612967848484612b95565b50505050565b600073ffffffffffffffffffffffffffffffffffffffff168373ffffffffffffffffffffffffffffffffffffffff1614156129dd576040517f08c379a00000000000000000000000000000000000000000000000000000000081526004016129d49061397b565b60405180910390fd5b600073ffffffffffffffffffffffffffffffffffffffff168273ffffffffffffffffffffffffffffffffffffffff161415612a4d576040517f08c379a0000000000000000000000000000000000000000000000000000000008152600401612a44906137fb565b60405180910390fd5b80600160008573ffffffffffffffffffffffffffffffffffffffff1673ffffffffffffffffffffffffffffffffffffffff16815260200190815260200160002060008473ffffffffffffffffffffffffffffffffffffffff1673ffffffffffffffffffffffffffffffffffffffff168152602001908152602001600020819055508173ffffffffffffffffffffffffffffffffffffffff168373ffffffffffffffffffffffffffffffffffffffff167f8c5be1e5ebec7d5bd14f71427d1e84f3dd0314c0f7b2291e5b200ac8c7c3b92583604051612b2b9190613a1b565b60405180910390a3505050565b60008183612b469190613b2f565b905092915050565b60008183612b5c9190613b60565b905092915050565b60008183612b729190613bba565b905092915050565b60008183612b889190613ad9565b905092915050565b505050565b505050565b6000612bad612ba884613a82565b613a51565b905082815260208101848484011115612bc557600080fd5b612bd0848285613c43565b509392505050565b600081359050612be781613d84565b92915050565b600082601f830112612bfe57600080fd5b8135612c0e848260208601612b9a565b91505092915050565b600081359050612c2681613d9b565b92915050565b600060208284031215612c3e57600080fd5b6000612c4c84828501612bd8565b91505092915050565b60008060408385031215612c6857600080fd5b6000612c7685828601612bd8565b9250506020612c8785828601612bd8565b9150509250929050565b60008060008060008060c08789031215612caa57600080fd5b6000612cb889828a01612bd8565b9650506020612cc989828a01612bd8565b9550506040612cda89828a01612bd8565b9450506060612ceb89828a01612bd8565b9350506080612cfc89828a01612bd8565b92505060a0612d0d89828a01612bd8565b9150509295509295509295565b600080600060608486031215612d2f57600080fd5b6000612d3d86828701612bd8565b9350506020612d4e86828701612bd8565b9250506040612d5f86828701612c17565b9150509250925092565b60008060008060008060c08789031215612d8257600080fd5b6000612d9089828a01612bd8565b965050602087013567ffffffffffffffff811115612dad57600080fd5b612db989828a01612bed565b9550506040612dca89828a01612c17565b9450506060612ddb89828a01612c17565b9350506080612dec89828a01612c17565b92505060a0612dfd89828a01612c17565b9150509295509295509295565b60008060408385031215612e1d57600080fd5b6000612e2b85828601612bd8565b9250506020612e3c85828601612c17565b9150509250929050565b60008060408385031215612e5957600080fd5b600083013567ffffffffffffffff811115612e7357600080fd5b612e7f85828601612bed565b9250506020612e9085828601612bd8565b9150509250929050565b600060208284031215612eac57600080fd5b6000612eba84828501612c17565b91505092915050565b612ecc81613bee565b82525050565b612edb81613c00565b82525050565b6000612eec82613ab2565b612ef68185613abd565b9350612f06818560208601613c52565b612f0f81613d73565b840191505092915050565b6000612f2582613ab2565b612f2f8185613ace565b9350612f3f818560208601613c52565b80840191505092915050565b6000612f58602383613abd565b91507f45524332303a207472616e7366657220746f20746865207a65726f206164647260008301527f65737300000000000000000000000000000000000000000000000000000000006020830152604082019050919050565b6000612fbe600383613ace565b91507f64657800000000000000000000000000000000000000000000000000000000006000830152600382019050919050565b6000612ffe600383613ace565b91507f6c697100000000000000000000000000000000000000000000000000000000006000830152600382019050919050565b600061303e602283613abd565b91507f45524332303a20617070726f766520746f20746865207a65726f20616464726560008301527f73730000000000000000000000000000000000000000000000000000000000006020830152604082019050919050565b60006130a4600a83613ace565b91507f7075626c696373616c65000000000000000000000000000000000000000000006000830152600a82019050919050565b60006130e4602883613abd565b91507f556e617574686f72697a6564206c697175696469747920696e63656e7469766560008301527f732077616c6c65740000000000000000000000000000000000000000000000006020830152604082019050919050565b600061314a602683613abd565b91507f45524332303a207472616e7366657220616d6f756e742065786365656473206260008301527f616c616e636500000000000000000000000000000000000000000000000000006020830152604082019050919050565b60006131b0601883613abd565b91507f556e617574686f72697a6564207465616d2077616c6c657400000000000000006000830152602082019050919050565b60006131f0601283613abd565b91507f4d617820616d6f756e74207265616368656400000000000000000000000000006000830152602082019050919050565b6000613230601f83613abd565b91507f556e617574686f72697a6564207075626c69632073616c652077616c6c6574006000830152602082019050919050565b6000613270601883613abd565b91507f576974686472617720616d6f756e7420746f6f206869676800000000000000006000830152602082019050919050565b60006132b0601d83613abd565b91507f556e617574686f72697a65642065636f73797374656d2077616c6c65740000006000830152602082019050919050565b60006132f0600b83613ace565b91507f7072697661746573616c650000000000000000000000000000000000000000006000830152600b82019050919050565b6000613330601b83613abd565b91507f53686f756c64206e6f7420736574207a65726f206164647265737300000000006000830152602082019050919050565b6000613370602883613abd565b91507f45524332303a207472616e7366657220616d6f756e742065786365656473206160008301527f6c6c6f77616e63650000000000000000000000000000000000000000000000006020830152604082019050919050565b60006133d6600983613ace565b91507f65636f73797374656d00000000000000000000000000000000000000000000006000830152600982019050919050565b6000613416601f83613abd565b91507f4f6e6c79206f776e65722063616e2073657420627579657220746f6b656e73006000830152602082019050919050565b6000613456602583613abd565b91507f45524332303a207472616e736665722066726f6d20746865207a65726f20616460008301527f64726573730000000000000000000000000000000000000000000000000000006020830152604082019050919050565b60006134bc602483613abd565b91507f45524332303a20617070726f76652066726f6d20746865207a65726f2061646460008301527f72657373000000000000000000000000000000000000000000000000000000006020830152604082019050919050565b6000613522601c83613abd565b91507f556e617574686f72697a65642072657365727665732077616c6c6574000000006000830152602082019050919050565b6000613562601d83613abd565b91507f4f6e6c79206f776e65722063616e207570646174652077616c6c6574730000006000830152602082019050919050565b60006135a2600483613ace565b91507f7465616d000000000000000000000000000000000000000000000000000000006000830152600482019050919050565b60006135e2600783613ace565b91507f72657365727665000000000000000000000000000000000000000000000000006000830152600782019050919050565b6000613622602583613abd565b91507f45524332303a2064656372656173656420616c6c6f77616e63652062656c6f7760008301527f207a65726f0000000000000000000000000000000000000000000000000000006020830152604082019050919050565b6000613688601783613abd565b91507f556e617574686f72697a6564206465782077616c6c65740000000000000000006000830152602082019050919050565b6136c481613c2c565b82525050565b6136d381613c36565b82525050565b60006136e58284612f1a565b915081905092915050565b60006136fb82612fb1565b9150819050919050565b600061371082612ff1565b9150819050919050565b600061372582613097565b9150819050919050565b600061373a826132e3565b9150819050919050565b600061374f826133c9565b9150819050919050565b600061376482613595565b9150819050919050565b6000613779826135d5565b9150819050919050565b60006020820190506137986000830184612ec3565b92915050565b60006020820190506137b36000830184612ed2565b92915050565b600060208201905081810360008301526137d38184612ee1565b905092915050565b600060208201905081810360008301526137f481612f4b565b9050919050565b6000602082019050818103600083015261381481613031565b9050919050565b60006020820190508181036000830152613834816130d7565b9050919050565b600060208201905081810360008301526138548161313d565b9050919050565b60006020820190508181036000830152613874816131a3565b9050919050565b60006020820190508181036000830152613894816131e3565b9050919050565b600060208201905081810360008301526138b481613223565b9050919050565b600060208201905081810360008301526138d481613263565b9050919050565b600060208201905081810360008301526138f4816132a3565b9050919050565b6000602082019050818103600083015261391481613323565b9050919050565b6000602082019050818103600083015261393481613363565b9050919050565b6000602082019050818103600083015261395481613409565b9050919050565b6000602082019050818103600083015261397481613449565b9050919050565b60006020820190508181036000830152613994816134af565b9050919050565b600060208201905081810360008301526139b481613515565b9050919050565b600060208201905081810360008301526139d481613555565b9050919050565b600060208201905081810360008301526139f481613615565b9050919050565b60006020820190508181036000830152613a148161367b565b9050919050565b6000602082019050613a3060008301846136bb565b92915050565b6000602082019050613a4b60008301846136ca565b92915050565b6000604051905081810181811067ffffffffffffffff82111715613a7857613a77613d44565b5b8060405250919050565b600067ffffffffffffffff821115613a9d57613a9c613d44565b5b601f19601f8301169050602081019050919050565b600081519050919050565b600082825260208201905092915050565b600081905092915050565b6000613ae482613c2c565b9150613aef83613c2c565b9250827fffffffffffffffffffffffffffffffffffffffffffffffffffffffffffffffff03821115613b2457613b23613cb7565b5b828201905092915050565b6000613b3a82613c2c565b9150613b4583613c2c565b925082613b5557613b54613ce6565b5b828204905092915050565b6000613b6b82613c2c565b9150613b7683613c2c565b9250817fffffffffffffffffffffffffffffffffffffffffffffffffffffffffffffffff0483118215151615613baf57613bae613cb7565b5b828202905092915050565b6000613bc582613c2c565b9150613bd083613c2c565b925082821015613be357613be2613cb7565b5b828203905092915050565b6000613bf982613c0c565b9050919050565b60008115159050919050565b600073ffffffffffffffffffffffffffffffffffffffff82169050919050565b6000819050919050565b600060ff82169050919050565b82818337600083830152505050565b60005b83811015613c70578082015181840152602081019050613c55565b83811115613c7f576000848401525b50505050565b60006002820490506001821680613c9d57607f821691505b60208210811415613cb157613cb0613d15565b5b50919050565b7f4e487b7100000000000000000000000000000000000000000000000000000000600052601160045260246000fd5b7f4e487b7100000000000000000000000000000000000000000000000000000000600052601260045260246000fd5b7f4e487b7100000000000000000000000000000000000000000000000000000000600052602260045260246000fd5b7f4e487b7100000000000000000000000000000000000000000000000000000000600052604160045260246000fd5b6000601f19601f8301169050919050565b613d8d81613bee565b8114613d9857600080fd5b50565b613da481613c2c565b8114613daf57600080fd5b5056fea2646970667358221220e5683ee02f38b4db12f5fd5ee9c92eb4f054634ad8aa7d632b1a7eee09eda9f964736f6c63430008000033",
  "immutableReferences": {},
  "source": "pragma solidity ^0.8.0;\n\nimport \"openzeppelin-solidity/contracts/token/ERC20/ERC20.sol\";\nimport \"openzeppelin-solidity/contracts/utils/math/SafeMath.sol\";\n\ncontract EnvoyToken is ERC20 {\n\n  using SafeMath for uint256;\n\n  //\n  // ******************* VARIABLES *******************\n  //\n\n  // Deploy time\n  uint256 private _deployTime = 1634032800;\n\n  // Contract owner\n  address public _ownerWallet;\n\n  // Public sale - 1M\n  address public _publicSaleWallet;\n  // Team - 20M\n  address public _teamWallet;\n  // Ecosystem - 25M\n  address public _ecosystemWallet;\n  // Reserves - 20M\n  address public _reservesWallet;\n  // DEX - 2M\n  address public _dexWallet;\n  // Liquidity incentives - 7M\n  address public _liqWallet;\n\n  // Amount of tokens per buyer in private sale - 25M\n  mapping(address => uint256) public _buyerTokens;\n\n  // Amount of tokens assigned to buyers\n  uint256 public _totalBuyerTokens;\n\n  // Amount of tokens a wallet has withdrawn already, per type\n  mapping(string => mapping(address => uint256)) public _walletTokensWithdrawn;\n\n\n  //\n  // ******************* SETUP *******************\n  //\n\n  constructor (string memory name, string memory symbol) public ERC20(name, symbol) {\n\n    // Set owner wallet\n    _ownerWallet = _msgSender();\n\n    // Mint 100M tokens for contract\n    _mint(address(this), 100000000000000000000000000);\n  }\n\n  //\n  // ******************* WALLETS SETUP *******************\n  //\n\n  // Owner can update owner\n  function updateOwner(address owner) external {\n    require(_msgSender() == _ownerWallet, \"Only owner can update wallets\");\n\n    _ownerWallet = owner; \n  }\n\n  // Update wallets\n  function updateWallets(address publicSale, address team, address ecosystem, address reserves, address dex, address liq) external {\n    require(_msgSender() == _ownerWallet, \"Only owner can update wallets\");\n\n    require(publicSale != address(0), \"Should not set zero address\");\n    require(team != address(0), \"Should not set zero address\");\n    require(ecosystem != address(0), \"Should not set zero address\");\n    require(reserves != address(0), \"Should not set zero address\");\n    require(dex != address(0), \"Should not set zero address\");\n    require(liq != address(0), \"Should not set zero address\");\n\n    _walletTokensWithdrawn[\"publicsale\"][publicSale] = _walletTokensWithdrawn[\"publicsale\"][_publicSaleWallet];\n    _walletTokensWithdrawn[\"team\"][team] = _walletTokensWithdrawn[\"team\"][_teamWallet];\n    _walletTokensWithdrawn[\"ecosystem\"][ecosystem] = _walletTokensWithdrawn[\"ecosystem\"][_ecosystemWallet];\n    _walletTokensWithdrawn[\"reserve\"][reserves] = _walletTokensWithdrawn[\"reserve\"][_reservesWallet];\n    _walletTokensWithdrawn[\"dex\"][dex] = _walletTokensWithdrawn[\"dex\"][_dexWallet];\n    _walletTokensWithdrawn[\"liq\"][liq] = _walletTokensWithdrawn[\"liq\"][_liqWallet];\n\n    _publicSaleWallet = publicSale; \n    _teamWallet = team;\n    _ecosystemWallet = ecosystem;\n    _reservesWallet = reserves;\n    _dexWallet = dex;\n    _liqWallet = liq;\n  }\n\n  // Update buyer tokens\n  function setBuyerTokens(address buyer, uint256 tokenAmount) external {\n    require(_msgSender() == _ownerWallet, \"Only owner can set buyer tokens\");\n\n    // Update total\n    _totalBuyerTokens -= _buyerTokens[buyer];\n    _totalBuyerTokens += tokenAmount;\n\n    // Check if enough tokens left, can max assign 25M\n    require(_totalBuyerTokens <= 25000000000000000000000000, \"Max amount reached\");\n\n    // Update map\n    _buyerTokens[buyer] = tokenAmount;\n  }\n\n  //\n  // ******************* OWNER *******************\n  //\n\n  function publicSaleWithdraw(uint256 tokenAmount) external {\n    require(_msgSender() == _publicSaleWallet, \"Unauthorized public sale wallet\");\n\n    uint256 hasWithdrawn = _walletTokensWithdrawn[\"publicsale\"][_msgSender()];\n\n    // Total = 1M instant\n    uint256 canWithdraw = 1000000000000000000000000 - hasWithdrawn;\n\n    require(tokenAmount <= canWithdraw, \"Withdraw amount too high\");\n\n    _walletTokensWithdrawn[\"publicsale\"][_msgSender()] += tokenAmount;\n\n    _transfer(address(this), _msgSender(), tokenAmount);    \n  }\n\n  function liqWithdraw(uint256 tokenAmount) external {\n    require(_msgSender() == _liqWallet, \"Unauthorized liquidity incentives wallet\");\n\n    uint256 hasWithdrawn = _walletTokensWithdrawn[\"liq\"][_msgSender()];\n\n    // Total = 7M instant\n    uint256 canWithdraw = 7000000000000000000000000 - hasWithdrawn;\n\n    require(tokenAmount <= canWithdraw, \"Withdraw amount too high\");\n\n    _walletTokensWithdrawn[\"liq\"][_msgSender()] += tokenAmount;\n\n    _transfer(address(this), _msgSender(), tokenAmount);  \n  }\n\n  function teamWithdraw(uint256 tokenAmount) external {\n    require(_msgSender() == _teamWallet, \"Unauthorized team wallet\");\n\n    // Cliff = 6 months = 262800 minutes\n    // Vesting = 18 months 788401 minutes\n    // Total = 20M\n    uint256 canWithdraw = walletCanWithdraw(_msgSender(), \"team\", 0, 262800, 788401, 20000000000000000000000000);\n    \n    require(tokenAmount <= canWithdraw, \"Withdraw amount too high\");\n\n    _walletTokensWithdrawn[\"team\"][_msgSender()] += tokenAmount;\n\n    _transfer(address(this), _msgSender(), tokenAmount);  \n  }\n\n  function ecosystemWithdraw(uint256 tokenAmount) external {\n    require(_msgSender() == _ecosystemWallet, \"Unauthorized ecosystem wallet\");\n\n    // Cliff = 3 months = 131400 minutes\n    // Vesting = 24 months = 1051202 minutes\n    // Total = 25M\n    uint256 canWithdraw = walletCanWithdraw(_msgSender(), \"ecosystem\", 0, 131400, 1051202, 25000000000000000000000000);\n    \n    require(tokenAmount <= canWithdraw, \"Withdraw amount too high\");\n\n    _walletTokensWithdrawn[\"ecosystem\"][_msgSender()] += tokenAmount;\n\n    _transfer(address(this), _msgSender(), tokenAmount);  \n  }\n\n  function reservesWithdraw(uint256 tokenAmount) external {\n    require(_msgSender() == _reservesWallet, \"Unauthorized reserves wallet\");\n\n    // Cliff = 6 months = 262800 minutes\n    // Vesting = 24 months = 1051202 minutes\n    // Total = 20M\n    uint256 canWithdraw = walletCanWithdraw(_msgSender(), \"reserve\", 0, 262800, 1051202, 20000000000000000000000000);\n    \n    require(tokenAmount <= canWithdraw, \"Withdraw amount too high\");\n\n    _walletTokensWithdrawn[\"reserve\"][_msgSender()] += tokenAmount;\n\n    _transfer(address(this), _msgSender(), tokenAmount);  \n  }\n\n  function dexWithdraw(uint256 tokenAmount) external {\n    require(_msgSender() == _dexWallet, \"Unauthorized dex wallet\");\n\n    uint256 hasWithdrawn = _walletTokensWithdrawn[\"dex\"][_msgSender()];\n\n    // Total = 2M instant\n    uint256 canWithdraw = 2000000000000000000000000 - hasWithdrawn;\n\n    require(tokenAmount <= canWithdraw, \"Withdraw amount too high\");\n\n    _walletTokensWithdrawn[\"dex\"][_msgSender()] += tokenAmount;\n\n    _transfer(address(this), _msgSender(), tokenAmount);    \n  }\n\n  function buyerWithdraw(uint256 tokenAmount) external {\n    \n    // TGE: 10%\n    // Cliff = 2 months = 87600 minutes\n    // Vesting = 6 months = 262800 minutes\n    uint256 canWithdraw = walletCanWithdraw(_msgSender(), \"privatesale\", 10, 87600, 262800, _buyerTokens[_msgSender()]);\n    \n    require(tokenAmount <= canWithdraw, \"Withdraw amount too high\");\n\n    _walletTokensWithdrawn[\"privatesale\"][_msgSender()] += tokenAmount;\n\n    _transfer(address(this), _msgSender(), tokenAmount);    \n  }\n\n  //\n  // ******************* UNLOCK CALCULATION *******************\n  //\n\n  function walletCanWithdraw(address wallet, string memory walletType, uint256 initialPercentage, uint256 cliffMinutes, uint256 vestingMinutes, uint256 totalTokens) public view returns(uint256) {\n    \n    uint256 minutesDiff = (block.timestamp - _deployTime).div(60);\n\n    // Tokens already withdrawn\n    uint256 withdrawnTokens = _walletTokensWithdrawn[walletType][wallet];\n\n    // Initial tokens\n    uint256 initialTokens = 0;\n    if (initialPercentage != 0) {\n      initialTokens = totalTokens.mul(initialPercentage).div(100);\n    }\n\n    // Cliff not ended\n    if (minutesDiff < uint256(cliffMinutes)) {\n      return initialTokens - withdrawnTokens;\n    }\n\n    // Tokens per minute over vesting period\n    uint256 buyerTokensPerMinute = totalTokens.sub(initialTokens).div(vestingMinutes); \n\n    // Advanced minutes minus cliff\n    uint256 unlockedMinutes = minutesDiff - uint256(cliffMinutes); \n\n    // Unlocked minutes * tokens per minutes + initial tokens\n    uint256 unlockedTokens = unlockedMinutes.mul(buyerTokensPerMinute).add(initialTokens); \n    \n    // No extra tokens unlocked\n    if (unlockedTokens <= withdrawnTokens) {\n      return 0;\n    }\n\n    // Check if buyer reached max\n    if (unlockedTokens > totalTokens) {\n      return totalTokens - withdrawnTokens;\n    }\n\n    // Result\n    return unlockedTokens - withdrawnTokens;\n  }\n\n}\n",
  "sourcePath": "/Users/nieldeckx/Development/Envoy-Token-Their-Git/Contracts/contracts/EnvoyToken.sol",
  "compiler": {
    "name": "solc",
    "version": "0.8.0+commit.c7dfd78e.Emscripten.clang"
  },
  "schemaVersion": "3.4.1",
  "updatedAt": "2021-10-07T10:08:23.854Z",
  "networkType": "ethereum",
  "devdoc": {
    "kind": "dev",
    "methods": {
      "allowance(address,address)": {
        "details": "See {IERC20-allowance}."
      },
      "approve(address,uint256)": {
        "details": "See {IERC20-approve}. Requirements: - `spender` cannot be the zero address."
      },
      "balanceOf(address)": {
        "details": "See {IERC20-balanceOf}."
      },
      "decimals()": {
        "details": "Returns the number of decimals used to get its user representation. For example, if `decimals` equals `2`, a balance of `505` tokens should be displayed to a user as `5,05` (`505 / 10 ** 2`). Tokens usually opt for a value of 18, imitating the relationship between Ether and Wei. This is the value {ERC20} uses, unless this function is overridden; NOTE: This information is only used for _display_ purposes: it in no way affects any of the arithmetic of the contract, including {IERC20-balanceOf} and {IERC20-transfer}."
      },
      "decreaseAllowance(address,uint256)": {
        "details": "Atomically decreases the allowance granted to `spender` by the caller. This is an alternative to {approve} that can be used as a mitigation for problems described in {IERC20-approve}. Emits an {Approval} event indicating the updated allowance. Requirements: - `spender` cannot be the zero address. - `spender` must have allowance for the caller of at least `subtractedValue`."
      },
      "increaseAllowance(address,uint256)": {
        "details": "Atomically increases the allowance granted to `spender` by the caller. This is an alternative to {approve} that can be used as a mitigation for problems described in {IERC20-approve}. Emits an {Approval} event indicating the updated allowance. Requirements: - `spender` cannot be the zero address."
      },
      "name()": {
        "details": "Returns the name of the token."
      },
      "symbol()": {
        "details": "Returns the symbol of the token, usually a shorter version of the name."
      },
      "totalSupply()": {
        "details": "See {IERC20-totalSupply}."
      },
      "transfer(address,uint256)": {
        "details": "See {IERC20-transfer}. Requirements: - `recipient` cannot be the zero address. - the caller must have a balance of at least `amount`."
      },
      "transferFrom(address,address,uint256)": {
        "details": "See {IERC20-transferFrom}. Emits an {Approval} event indicating the updated allowance. This is not required by the EIP. See the note at the beginning of {ERC20}. Requirements: - `sender` and `recipient` cannot be the zero address. - `sender` must have a balance of at least `amount`. - the caller must have allowance for ``sender``'s tokens of at least `amount`."
      }
    },
    "version": 1
  },
  "userdoc": {
    "kind": "user",
    "methods": {},
    "version": 1
  }
}