{
  "contractName": "EnvoyToken",
  "abi": [
    {
      "inputs": [
        {
          "internalType": "string",
          "name": "name",
          "type": "string"
        },
        {
          "internalType": "string",
          "name": "symbol",
          "type": "string"
        }
      ],
      "stateMutability": "nonpayable",
      "type": "constructor"
    },
    {
      "anonymous": false,
      "inputs": [
        {
          "indexed": true,
          "internalType": "address",
          "name": "owner",
          "type": "address"
        },
        {
          "indexed": true,
          "internalType": "address",
          "name": "spender",
          "type": "address"
        },
        {
          "indexed": false,
          "internalType": "uint256",
          "name": "value",
          "type": "uint256"
        }
      ],
      "name": "Approval",
      "type": "event"
    },
    {
      "anonymous": false,
      "inputs": [
        {
          "indexed": true,
          "internalType": "address",
          "name": "from",
          "type": "address"
        },
        {
          "indexed": true,
          "internalType": "address",
          "name": "to",
          "type": "address"
        },
        {
          "indexed": false,
          "internalType": "uint256",
          "name": "value",
          "type": "uint256"
        }
      ],
      "name": "Transfer",
      "type": "event"
    },
    {
      "inputs": [
        {
          "internalType": "address",
          "name": "",
          "type": "address"
        }
      ],
      "name": "_buyerTokens",
      "outputs": [
        {
          "internalType": "uint256",
          "name": "",
          "type": "uint256"
        }
      ],
      "stateMutability": "view",
      "type": "function",
      "constant": true
    },
    {
      "inputs": [],
      "name": "_dexWallet",
      "outputs": [
        {
          "internalType": "address",
          "name": "",
          "type": "address"
        }
      ],
      "stateMutability": "view",
      "type": "function",
      "constant": true
    },
    {
      "inputs": [],
      "name": "_ecosystemWallet",
      "outputs": [
        {
          "internalType": "address",
          "name": "",
          "type": "address"
        }
      ],
      "stateMutability": "view",
      "type": "function",
      "constant": true
    },
    {
      "inputs": [],
      "name": "_liqWallet",
      "outputs": [
        {
          "internalType": "address",
          "name": "",
          "type": "address"
        }
      ],
      "stateMutability": "view",
      "type": "function",
      "constant": true
    },
    {
      "inputs": [],
      "name": "_ownerWallet",
      "outputs": [
        {
          "internalType": "address",
          "name": "",
          "type": "address"
        }
      ],
      "stateMutability": "view",
      "type": "function",
      "constant": true
    },
    {
      "inputs": [],
      "name": "_publicSaleWallet",
      "outputs": [
        {
          "internalType": "address",
          "name": "",
          "type": "address"
        }
      ],
      "stateMutability": "view",
      "type": "function",
      "constant": true
    },
    {
      "inputs": [],
      "name": "_reservesWallet",
      "outputs": [
        {
          "internalType": "address",
          "name": "",
          "type": "address"
        }
      ],
      "stateMutability": "view",
      "type": "function",
      "constant": true
    },
    {
      "inputs": [],
      "name": "_teamWallet",
      "outputs": [
        {
          "internalType": "address",
          "name": "",
          "type": "address"
        }
      ],
      "stateMutability": "view",
      "type": "function",
      "constant": true
    },
    {
      "inputs": [],
      "name": "_totalBuyerTokens",
      "outputs": [
        {
          "internalType": "uint256",
          "name": "",
          "type": "uint256"
        }
      ],
      "stateMutability": "view",
      "type": "function",
      "constant": true
    },
    {
      "inputs": [
        {
          "internalType": "string",
          "name": "",
          "type": "string"
        },
        {
          "internalType": "address",
          "name": "",
          "type": "address"
        }
      ],
      "name": "_walletTokensWithdrawn",
      "outputs": [
        {
          "internalType": "uint256",
          "name": "",
          "type": "uint256"
        }
      ],
      "stateMutability": "view",
      "type": "function",
      "constant": true
    },
    {
      "inputs": [
        {
          "internalType": "address",
          "name": "owner",
          "type": "address"
        },
        {
          "internalType": "address",
          "name": "spender",
          "type": "address"
        }
      ],
      "name": "allowance",
      "outputs": [
        {
          "internalType": "uint256",
          "name": "",
          "type": "uint256"
        }
      ],
      "stateMutability": "view",
      "type": "function",
      "constant": true
    },
    {
      "inputs": [
        {
          "internalType": "address",
          "name": "spender",
          "type": "address"
        },
        {
          "internalType": "uint256",
          "name": "amount",
          "type": "uint256"
        }
      ],
      "name": "approve",
      "outputs": [
        {
          "internalType": "bool",
          "name": "",
          "type": "bool"
        }
      ],
      "stateMutability": "nonpayable",
      "type": "function"
    },
    {
      "inputs": [
        {
          "internalType": "address",
          "name": "account",
          "type": "address"
        }
      ],
      "name": "balanceOf",
      "outputs": [
        {
          "internalType": "uint256",
          "name": "",
          "type": "uint256"
        }
      ],
      "stateMutability": "view",
      "type": "function",
      "constant": true
    },
    {
      "inputs": [],
      "name": "decimals",
      "outputs": [
        {
          "internalType": "uint8",
          "name": "",
          "type": "uint8"
        }
      ],
      "stateMutability": "view",
      "type": "function",
      "constant": true
    },
    {
      "inputs": [
        {
          "internalType": "address",
          "name": "spender",
          "type": "address"
        },
        {
          "internalType": "uint256",
          "name": "subtractedValue",
          "type": "uint256"
        }
      ],
      "name": "decreaseAllowance",
      "outputs": [
        {
          "internalType": "bool",
          "name": "",
          "type": "bool"
        }
      ],
      "stateMutability": "nonpayable",
      "type": "function"
    },
    {
      "inputs": [
        {
          "internalType": "address",
          "name": "spender",
          "type": "address"
        },
        {
          "internalType": "uint256",
          "name": "addedValue",
          "type": "uint256"
        }
      ],
      "name": "increaseAllowance",
      "outputs": [
        {
          "internalType": "bool",
          "name": "",
          "type": "bool"
        }
      ],
      "stateMutability": "nonpayable",
      "type": "function"
    },
    {
      "inputs": [],
      "name": "name",
      "outputs": [
        {
          "internalType": "string",
          "name": "",
          "type": "string"
        }
      ],
      "stateMutability": "view",
      "type": "function",
      "constant": true
    },
    {
      "inputs": [],
      "name": "symbol",
      "outputs": [
        {
          "internalType": "string",
          "name": "",
          "type": "string"
        }
      ],
      "stateMutability": "view",
      "type": "function",
      "constant": true
    },
    {
      "inputs": [],
      "name": "totalSupply",
      "outputs": [
        {
          "internalType": "uint256",
          "name": "",
          "type": "uint256"
        }
      ],
      "stateMutability": "view",
      "type": "function",
      "constant": true
    },
    {
      "inputs": [
        {
          "internalType": "address",
          "name": "recipient",
          "type": "address"
        },
        {
          "internalType": "uint256",
          "name": "amount",
          "type": "uint256"
        }
      ],
      "name": "transfer",
      "outputs": [
        {
          "internalType": "bool",
          "name": "",
          "type": "bool"
        }
      ],
      "stateMutability": "nonpayable",
      "type": "function"
    },
    {
      "inputs": [
        {
          "internalType": "address",
          "name": "sender",
          "type": "address"
        },
        {
          "internalType": "address",
          "name": "recipient",
          "type": "address"
        },
        {
          "internalType": "uint256",
          "name": "amount",
          "type": "uint256"
        }
      ],
      "name": "transferFrom",
      "outputs": [
        {
          "internalType": "bool",
          "name": "",
          "type": "bool"
        }
      ],
      "stateMutability": "nonpayable",
      "type": "function"
    },
    {
      "inputs": [
        {
          "internalType": "address",
          "name": "owner",
          "type": "address"
        }
      ],
      "name": "updateOwner",
      "outputs": [],
      "stateMutability": "nonpayable",
      "type": "function"
    },
    {
      "inputs": [
        {
          "internalType": "address",
          "name": "publicSale",
          "type": "address"
        },
        {
          "internalType": "address",
          "name": "team",
          "type": "address"
        },
        {
          "internalType": "address",
          "name": "ecosystem",
          "type": "address"
        },
        {
          "internalType": "address",
          "name": "reserves",
          "type": "address"
        },
        {
          "internalType": "address",
          "name": "dex",
          "type": "address"
        },
        {
          "internalType": "address",
          "name": "liq",
          "type": "address"
        }
      ],
      "name": "updateWallets",
      "outputs": [],
      "stateMutability": "nonpayable",
      "type": "function"
    },
    {
      "inputs": [
        {
          "internalType": "address",
          "name": "buyer",
          "type": "address"
        },
        {
          "internalType": "uint256",
          "name": "tokenAmount",
          "type": "uint256"
        }
      ],
      "name": "setBuyerTokens",
      "outputs": [],
      "stateMutability": "nonpayable",
      "type": "function"
    },
    {
      "inputs": [
        {
          "internalType": "uint256",
          "name": "tokenAmount",
          "type": "uint256"
        }
      ],
      "name": "publicSaleWithdraw",
      "outputs": [],
      "stateMutability": "nonpayable",
      "type": "function"
    },
    {
      "inputs": [
        {
          "internalType": "uint256",
          "name": "tokenAmount",
          "type": "uint256"
        }
      ],
      "name": "teamWithdraw",
      "outputs": [],
      "stateMutability": "nonpayable",
      "type": "function"
    },
    {
      "inputs": [
        {
          "internalType": "uint256",
          "name": "tokenAmount",
          "type": "uint256"
        }
      ],
      "name": "ecosystemWithdraw",
      "outputs": [],
      "stateMutability": "nonpayable",
      "type": "function"
    },
    {
      "inputs": [
        {
          "internalType": "uint256",
          "name": "tokenAmount",
          "type": "uint256"
        }
      ],
      "name": "reservesWithdraw",
      "outputs": [],
      "stateMutability": "nonpayable",
      "type": "function"
    },
    {
      "inputs": [
        {
          "internalType": "uint256",
          "name": "tokenAmount",
          "type": "uint256"
        }
      ],
      "name": "dexWithdraw",
      "outputs": [],
      "stateMutability": "nonpayable",
      "type": "function"
    },
    {
      "inputs": [
        {
          "internalType": "uint256",
          "name": "tokenAmount",
          "type": "uint256"
        }
      ],
      "name": "liqWithdraw",
      "outputs": [],
      "stateMutability": "nonpayable",
      "type": "function"
    },
    {
      "inputs": [
        {
          "internalType": "uint256",
          "name": "tokenAmount",
          "type": "uint256"
        }
      ],
      "name": "buyerWithdraw",
      "outputs": [],
      "stateMutability": "nonpayable",
      "type": "function"
    },
    {
      "inputs": [
        {
          "internalType": "address",
          "name": "wallet",
          "type": "address"
        },
        {
          "internalType": "string",
          "name": "walletType",
          "type": "string"
        },
        {
          "internalType": "uint256",
          "name": "initialPercentage",
          "type": "uint256"
        },
        {
          "internalType": "uint256",
          "name": "cliffMinutes",
          "type": "uint256"
        },
        {
          "internalType": "uint256",
          "name": "vestingMinutes",
          "type": "uint256"
        },
        {
          "internalType": "uint256",
          "name": "totalTokens",
          "type": "uint256"
        }
      ],
      "name": "walletCanWithdraw",
      "outputs": [
        {
          "internalType": "uint256",
          "name": "",
          "type": "uint256"
        }
      ],
      "stateMutability": "view",
      "type": "function",
      "constant": true
    }
  ],
  "bytecode": "0x6080604052426005553480156200001557600080fd5b5060405162003c2e38038062003c2e83398181016040528101906200003b919062000393565b818181600390805190602001906200005592919062000271565b5080600490805190602001906200006e92919062000271565b50505062000081620000e660201b60201c565b600660006101000a81548173ffffffffffffffffffffffffffffffffffffffff021916908373ffffffffffffffffffffffffffffffffffffffff160217905550620000de306a52b7d2dcc80cd2e4000000620000ee60201b60201c565b505062000670565b600033905090565b600073ffffffffffffffffffffffffffffffffffffffff168273ffffffffffffffffffffffffffffffffffffffff16141562000161576040517f08c379a0000000000000000000000000000000000000000000000000000000008152600401620001589062000459565b60405180910390fd5b62000175600083836200026760201b60201c565b806002600082825462000189919062000510565b92505081905550806000808473ffffffffffffffffffffffffffffffffffffffff1673ffffffffffffffffffffffffffffffffffffffff1681526020019081526020016000206000828254620001e0919062000510565b925050819055508173ffffffffffffffffffffffffffffffffffffffff16600073ffffffffffffffffffffffffffffffffffffffff167fddf252ad1be2c89b69c2b068fc378daa952ba7f163c4a11628f55a4df523b3ef836040516200024791906200047b565b60405180910390a362000263600083836200026c60201b60201c565b5050565b505050565b505050565b8280546200027f90620005ad565b90600052602060002090601f016020900481019282620002a35760008555620002ef565b82601f10620002be57805160ff1916838001178555620002ef565b82800160010185558215620002ef579182015b82811115620002ee578251825591602001919060010190620002d1565b5b509050620002fe919062000302565b5090565b5b808211156200031d57600081600090555060010162000303565b5090565b6000620003386200033284620004cc565b62000498565b9050828152602081018484840111156200035157600080fd5b6200035e84828562000577565b509392505050565b600082601f8301126200037857600080fd5b81516200038a84826020860162000321565b91505092915050565b60008060408385031215620003a757600080fd5b600083015167ffffffffffffffff811115620003c257600080fd5b620003d08582860162000366565b925050602083015167ffffffffffffffff811115620003ee57600080fd5b620003fc8582860162000366565b9150509250929050565b600062000415601f83620004ff565b91507f45524332303a206d696e7420746f20746865207a65726f2061646472657373006000830152602082019050919050565b62000453816200056d565b82525050565b60006020820190508181036000830152620004748162000406565b9050919050565b600060208201905062000492600083018462000448565b92915050565b6000604051905081810181811067ffffffffffffffff82111715620004c257620004c162000641565b5b8060405250919050565b600067ffffffffffffffff821115620004ea57620004e962000641565b5b601f19601f8301169050602081019050919050565b600082825260208201905092915050565b60006200051d826200056d565b91506200052a836200056d565b9250827fffffffffffffffffffffffffffffffffffffffffffffffffffffffffffffffff03821115620005625762000561620005e3565b5b828201905092915050565b6000819050919050565b60005b83811015620005975780820151818401526020810190506200057a565b83811115620005a7576000848401525b50505050565b60006002820490506001821680620005c657607f821691505b60208210811415620005dd57620005dc62000612565b5b50919050565b7f4e487b7100000000000000000000000000000000000000000000000000000000600052601160045260246000fd5b7f4e487b7100000000000000000000000000000000000000000000000000000000600052602260045260246000fd5b7f4e487b7100000000000000000000000000000000000000000000000000000000600052604160045260246000fd5b6135ae80620006806000396000f3fe608060405234801561001057600080fd5b50600436106101f05760003560e01c806370a082311161010f578063a457c2d7116100a2578063b96190d611610071578063b96190d6146105cd578063bec3fab1146105eb578063d6aedc6d14610609578063dd62ed3e14610625576101f0565b8063a457c2d714610535578063a9059cbb14610565578063b03fd85a14610595578063b620743a146105b1576101f0565b806393d60990116100de57806393d60990146104c157806395d89b41146104dd57806399c26c53146104fb5780639f1161c314610517576101f0565b806370a082311461043b5780637a0f06e71461046b57806381640a9114610489578063880cdc31146104a5576101f0565b806323b872dd116101875780634825fc0d116101565780634825fc0d146103b35780634c420743146103d15780634e5fde97146103ef57806363586f391461040b576101f0565b806323b872dd14610317578063313ce5671461034757806337e294d5146103655780633950935114610383576101f0565b8063100505b9116101c3578063100505b91461028f57806318160ddd146102ad57806322cb364e146102cb57806322fd5cea146102e7576101f0565b806306fdde03146101f557806307562e2914610213578063095ea7b31461022f5780630c790fbe1461025f575b600080fd5b6101fd610655565b60405161020a9190612f9f565b60405180910390f35b61022d600480360381019061022891906126c0565b6106e7565b005b61024960048036038101906102449190612630565b6108cf565b6040516102569190612f84565b60405180910390f35b6102796004803603810190610274919061266c565b6108ed565b60405161028691906131e1565b60405180910390f35b610297610928565b6040516102a49190612f69565b60405180910390f35b6102b561094e565b6040516102c291906131e1565b60405180910390f35b6102e560048036038101906102e091906124b7565b610958565b005b61030160048036038101906102fc919061258f565b610b7d565b60405161030e91906131e1565b60405180910390f35b610331600480360381019061032c9190612540565b610d0b565b60405161033e9190612f84565b60405180910390f35b61034f610e03565b60405161035c91906131fc565b60405180910390f35b61036d610e0c565b60405161037a9190612f69565b60405180910390f35b61039d60048036038101906103989190612630565b610e32565b6040516103aa9190612f84565b60405180910390f35b6103bb610ede565b6040516103c89190612f69565b60405180910390f35b6103d9610f04565b6040516103e69190612f69565b60405180910390f35b610409600480360381019061040491906126c0565b610f2a565b005b61042560048036038101906104209190612452565b611111565b60405161043291906131e1565b60405180910390f35b61045560048036038101906104509190612452565b611129565b60405161046291906131e1565b60405180910390f35b610473611171565b6040516104809190612f69565b60405180910390f35b6104a3600480360381019061049e91906126c0565b611197565b005b6104bf60048036038101906104ba9190612452565b61135b565b005b6104db60048036038101906104d691906126c0565b611436565b005b6104e56115fd565b6040516104f29190612f9f565b60405180910390f35b610515600480360381019061051091906126c0565b61168f565b005b61051f611856565b60405161052c9190612f69565b60405180910390f35b61054f600480360381019061054a9190612630565b61187c565b60405161055c9190612f84565b60405180910390f35b61057f600480360381019061057a9190612630565b611967565b60405161058c9190612f84565b60405180910390f35b6105af60048036038101906105aa91906126c0565b611985565b005b6105cb60048036038101906105c691906126c0565b611af0565b005b6105d5611cb7565b6040516105e291906131e1565b60405180910390f35b6105f3611cbd565b6040516106009190612f69565b60405180910390f35b610623600480360381019061061e9190612630565b611ce3565b005b61063f600480360381019061063a919061247b565b611e83565b60405161064c91906131e1565b60405180910390f35b6060600380546106649061344b565b80601f01602080910402602001604051908101604052809291908181526020018280546106909061344b565b80156106dd5780601f106106b2576101008083540402835291602001916106dd565b820191906000526020600020905b8154815290600101906020018083116106c057829003601f168201915b5050505050905090565b600b60009054906101000a900473ffffffffffffffffffffffffffffffffffffffff1673ffffffffffffffffffffffffffffffffffffffff16610728611f0a565b73ffffffffffffffffffffffffffffffffffffffff161461077e576040517f08c379a0000000000000000000000000000000000000000000000000000000008152600401610775906131c1565b60405180910390fd5b6000600f60405161078e90612ed6565b908152602001604051809103902060006107a6611f0a565b73ffffffffffffffffffffffffffffffffffffffff1673ffffffffffffffffffffffffffffffffffffffff1681526020019081526020016000205490506000816a01a784379d99db420000006107fc9190613380565b905080831115610841576040517f08c379a0000000000000000000000000000000000000000000000000000000008152600401610838906130a1565b60405180910390fd5b82600f60405161085090612ed6565b90815260200160405180910390206000610868611f0a565b73ffffffffffffffffffffffffffffffffffffffff1673ffffffffffffffffffffffffffffffffffffffff16815260200190815260200160002060008282546108b1919061329f565b925050819055506108ca306108c4611f0a565b85611f12565b505050565b60006108e36108dc611f0a565b8484612193565b6001905092915050565b600f82805160208101820180518482526020830160208501208183528095505050505050602052806000526040600020600091509150505481565b600760009054906101000a900473ffffffffffffffffffffffffffffffffffffffff1681565b6000600254905090565b600660009054906101000a900473ffffffffffffffffffffffffffffffffffffffff1673ffffffffffffffffffffffffffffffffffffffff16610999611f0a565b73ffffffffffffffffffffffffffffffffffffffff16146109ef576040517f08c379a00000000000000000000000000000000000000000000000000000000081526004016109e690613181565b60405180910390fd5b85600760006101000a81548173ffffffffffffffffffffffffffffffffffffffff021916908373ffffffffffffffffffffffffffffffffffffffff16021790555084600860006101000a81548173ffffffffffffffffffffffffffffffffffffffff021916908373ffffffffffffffffffffffffffffffffffffffff16021790555083600960006101000a81548173ffffffffffffffffffffffffffffffffffffffff021916908373ffffffffffffffffffffffffffffffffffffffff16021790555082600a60006101000a81548173ffffffffffffffffffffffffffffffffffffffff021916908373ffffffffffffffffffffffffffffffffffffffff16021790555081600b60006101000a81548173ffffffffffffffffffffffffffffffffffffffff021916908373ffffffffffffffffffffffffffffffffffffffff16021790555080600c60006101000a81548173ffffffffffffffffffffffffffffffffffffffff021916908373ffffffffffffffffffffffffffffffffffffffff160217905550505050505050565b600080610ba1603c60055442610b939190613380565b61235e90919063ffffffff16565b90506000600f88604051610bb59190612ebf565b908152602001604051809103902060008a73ffffffffffffffffffffffffffffffffffffffff1673ffffffffffffffffffffffffffffffffffffffff1681526020019081526020016000205490506000808814610c3557610c326064610c248a8861237490919063ffffffff16565b61235e90919063ffffffff16565b90505b86831015610c53578181610c499190613380565b9350505050610d01565b6000610c7a87610c6c848961238a90919063ffffffff16565b61235e90919063ffffffff16565b905060008885610c8a9190613380565b90506000610cb384610ca5858561237490919063ffffffff16565b6123a090919063ffffffff16565b9050848111610ccb5760009650505050505050610d01565b87811115610cec578488610cdf9190613380565b9650505050505050610d01565b8481610cf89190613380565b96505050505050505b9695505050505050565b6000610d18848484611f12565b6000600160008673ffffffffffffffffffffffffffffffffffffffff1673ffffffffffffffffffffffffffffffffffffffff1681526020019081526020016000206000610d63611f0a565b73ffffffffffffffffffffffffffffffffffffffff1673ffffffffffffffffffffffffffffffffffffffff16815260200190815260200160002054905082811015610de3576040517f08c379a0000000000000000000000000000000000000000000000000000000008152600401610dda906130e1565b60405180910390fd5b610df785610def611f0a565b858403612193565b60019150509392505050565b60006012905090565b600860009054906101000a900473ffffffffffffffffffffffffffffffffffffffff1681565b6000610ed4610e3f611f0a565b848460016000610e4d611f0a565b73ffffffffffffffffffffffffffffffffffffffff1673ffffffffffffffffffffffffffffffffffffffff16815260200190815260200160002060008873ffffffffffffffffffffffffffffffffffffffff1673ffffffffffffffffffffffffffffffffffffffff16815260200190815260200160002054610ecf919061329f565b612193565b6001905092915050565b600660009054906101000a900473ffffffffffffffffffffffffffffffffffffffff1681565b600960009054906101000a900473ffffffffffffffffffffffffffffffffffffffff1681565b600760009054906101000a900473ffffffffffffffffffffffffffffffffffffffff1673ffffffffffffffffffffffffffffffffffffffff16610f6b611f0a565b73ffffffffffffffffffffffffffffffffffffffff1614610fc1576040517f08c379a0000000000000000000000000000000000000000000000000000000008152600401610fb890613081565b60405180910390fd5b6000600f604051610fd190612f00565b90815260200160405180910390206000610fe9611f0a565b73ffffffffffffffffffffffffffffffffffffffff1673ffffffffffffffffffffffffffffffffffffffff16815260200190815260200160002054905060008169d3c21bcecceda100000061103e9190613380565b905080831115611083576040517f08c379a000000000000000000000000000000000000000000000000000000000815260040161107a906130a1565b60405180910390fd5b82600f60405161109290612f00565b908152602001604051809103902060006110aa611f0a565b73ffffffffffffffffffffffffffffffffffffffff1673ffffffffffffffffffffffffffffffffffffffff16815260200190815260200160002060008282546110f3919061329f565b9250508190555061110c30611106611f0a565b85611f12565b505050565b600d6020528060005260406000206000915090505481565b60008060008373ffffffffffffffffffffffffffffffffffffffff1673ffffffffffffffffffffffffffffffffffffffff168152602001908152602001600020549050919050565b600c60009054906101000a900473ffffffffffffffffffffffffffffffffffffffff1681565b600c60009054906101000a900473ffffffffffffffffffffffffffffffffffffffff1673ffffffffffffffffffffffffffffffffffffffff166111d8611f0a565b73ffffffffffffffffffffffffffffffffffffffff161461122e576040517f08c379a000000000000000000000000000000000000000000000000000000000815260040161122590613001565b60405180910390fd5b600061128961123b611f0a565b6040518060400160405280600381526020017f6c69710000000000000000000000000000000000000000000000000000000000815250600080620402906a05ca4ec2a79a7f67000000610b7d565b9050808211156112ce576040517f08c379a00000000000000000000000000000000000000000000000000000000081526004016112c5906130a1565b60405180910390fd5b81600f6040516112dd90612eeb565b908152602001604051809103902060006112f5611f0a565b73ffffffffffffffffffffffffffffffffffffffff1673ffffffffffffffffffffffffffffffffffffffff168152602001908152602001600020600082825461133e919061329f565b9250508190555061135730611351611f0a565b84611f12565b5050565b600660009054906101000a900473ffffffffffffffffffffffffffffffffffffffff1673ffffffffffffffffffffffffffffffffffffffff1661139c611f0a565b73ffffffffffffffffffffffffffffffffffffffff16146113f2576040517f08c379a00000000000000000000000000000000000000000000000000000000081526004016113e990613181565b60405180910390fd5b80600660006101000a81548173ffffffffffffffffffffffffffffffffffffffff021916908373ffffffffffffffffffffffffffffffffffffffff16021790555050565b600860009054906101000a900473ffffffffffffffffffffffffffffffffffffffff1673ffffffffffffffffffffffffffffffffffffffff16611477611f0a565b73ffffffffffffffffffffffffffffffffffffffff16146114cd576040517f08c379a00000000000000000000000000000000000000000000000000000000081526004016114c490613041565b60405180910390fd5b600061152b6114da611f0a565b6040518060400160405280600481526020017f7465616d00000000000000000000000000000000000000000000000000000000815250600062040290620c07b16a108b2a2c28029094000000610b7d565b905080821115611570576040517f08c379a0000000000000000000000000000000000000000000000000000000008152600401611567906130a1565b60405180910390fd5b81600f60405161157f90612f3f565b90815260200160405180910390206000611597611f0a565b73ffffffffffffffffffffffffffffffffffffffff1673ffffffffffffffffffffffffffffffffffffffff16815260200190815260200160002060008282546115e0919061329f565b925050819055506115f9306115f3611f0a565b84611f12565b5050565b60606004805461160c9061344b565b80601f01602080910402602001604051908101604052809291908181526020018280546116389061344b565b80156116855780601f1061165a57610100808354040283529160200191611685565b820191906000526020600020905b81548152906001019060200180831161166857829003601f168201915b5050505050905090565b600960009054906101000a900473ffffffffffffffffffffffffffffffffffffffff1673ffffffffffffffffffffffffffffffffffffffff166116d0611f0a565b73ffffffffffffffffffffffffffffffffffffffff1614611726576040517f08c379a000000000000000000000000000000000000000000000000000000000815260040161171d906130c1565b60405180910390fd5b6000611784611733611f0a565b6040518060400160405280600981526020017f65636f73797374656d000000000000000000000000000000000000000000000081525060006202014862100a426a14adf4b7320334b9000000610b7d565b9050808211156117c9576040517f08c379a00000000000000000000000000000000000000000000000000000000081526004016117c0906130a1565b60405180910390fd5b81600f6040516117d890612f2a565b908152602001604051809103902060006117f0611f0a565b73ffffffffffffffffffffffffffffffffffffffff1673ffffffffffffffffffffffffffffffffffffffff1681526020019081526020016000206000828254611839919061329f565b925050819055506118523061184c611f0a565b84611f12565b5050565b600b60009054906101000a900473ffffffffffffffffffffffffffffffffffffffff1681565b6000806001600061188b611f0a565b73ffffffffffffffffffffffffffffffffffffffff1673ffffffffffffffffffffffffffffffffffffffff16815260200190815260200160002060008573ffffffffffffffffffffffffffffffffffffffff1673ffffffffffffffffffffffffffffffffffffffff16815260200190815260200160002054905082811015611948576040517f08c379a000000000000000000000000000000000000000000000000000000000815260040161193f906131a1565b60405180910390fd5b61195c611953611f0a565b85858403612193565b600191505092915050565b600061197b611974611f0a565b8484611f12565b6001905092915050565b6000611a1e611992611f0a565b6040518060400160405280600b81526020017f7072697661746573616c65000000000000000000000000000000000000000000815250600a6201563062040290600d60006119de611f0a565b73ffffffffffffffffffffffffffffffffffffffff1673ffffffffffffffffffffffffffffffffffffffff16815260200190815260200160002054610b7d565b905080821115611a63576040517f08c379a0000000000000000000000000000000000000000000000000000000008152600401611a5a906130a1565b60405180910390fd5b81600f604051611a7290612f15565b90815260200160405180910390206000611a8a611f0a565b73ffffffffffffffffffffffffffffffffffffffff1673ffffffffffffffffffffffffffffffffffffffff1681526020019081526020016000206000828254611ad3919061329f565b92505081905550611aec30611ae6611f0a565b84611f12565b5050565b600a60009054906101000a900473ffffffffffffffffffffffffffffffffffffffff1673ffffffffffffffffffffffffffffffffffffffff16611b31611f0a565b73ffffffffffffffffffffffffffffffffffffffff1614611b87576040517f08c379a0000000000000000000000000000000000000000000000000000000008152600401611b7e90613161565b60405180910390fd5b6000611be5611b94611f0a565b6040518060400160405280600781526020017f726573657276650000000000000000000000000000000000000000000000000081525060006204029062100a426a108b2a2c28029094000000610b7d565b905080821115611c2a576040517f08c379a0000000000000000000000000000000000000000000000000000000008152600401611c21906130a1565b60405180910390fd5b81600f604051611c3990612f54565b90815260200160405180910390206000611c51611f0a565b73ffffffffffffffffffffffffffffffffffffffff1673ffffffffffffffffffffffffffffffffffffffff1681526020019081526020016000206000828254611c9a919061329f565b92505081905550611cb330611cad611f0a565b84611f12565b5050565b600e5481565b600a60009054906101000a900473ffffffffffffffffffffffffffffffffffffffff1681565b600660009054906101000a900473ffffffffffffffffffffffffffffffffffffffff1673ffffffffffffffffffffffffffffffffffffffff16611d24611f0a565b73ffffffffffffffffffffffffffffffffffffffff1614611d7a576040517f08c379a0000000000000000000000000000000000000000000000000000000008152600401611d7190613101565b60405180910390fd5b600d60008373ffffffffffffffffffffffffffffffffffffffff1673ffffffffffffffffffffffffffffffffffffffff16815260200190815260200160002054600e6000828254611dcb9190613380565b9250508190555080600e6000828254611de4919061329f565b925050819055506a14adf4b7320334b9000000600e541115611e3b576040517f08c379a0000000000000000000000000000000000000000000000000000000008152600401611e3290613061565b60405180910390fd5b80600d60008473ffffffffffffffffffffffffffffffffffffffff1673ffffffffffffffffffffffffffffffffffffffff168152602001908152602001600020819055505050565b6000600160008473ffffffffffffffffffffffffffffffffffffffff1673ffffffffffffffffffffffffffffffffffffffff16815260200190815260200160002060008373ffffffffffffffffffffffffffffffffffffffff1673ffffffffffffffffffffffffffffffffffffffff16815260200190815260200160002054905092915050565b600033905090565b600073ffffffffffffffffffffffffffffffffffffffff168373ffffffffffffffffffffffffffffffffffffffff161415611f82576040517f08c379a0000000000000000000000000000000000000000000000000000000008152600401611f7990613121565b60405180910390fd5b600073ffffffffffffffffffffffffffffffffffffffff168273ffffffffffffffffffffffffffffffffffffffff161415611ff2576040517f08c379a0000000000000000000000000000000000000000000000000000000008152600401611fe990612fc1565b60405180910390fd5b611ffd8383836123b6565b60008060008573ffffffffffffffffffffffffffffffffffffffff1673ffffffffffffffffffffffffffffffffffffffff16815260200190815260200160002054905081811015612083576040517f08c379a000000000000000000000000000000000000000000000000000000000815260040161207a90613021565b60405180910390fd5b8181036000808673ffffffffffffffffffffffffffffffffffffffff1673ffffffffffffffffffffffffffffffffffffffff16815260200190815260200160002081905550816000808573ffffffffffffffffffffffffffffffffffffffff1673ffffffffffffffffffffffffffffffffffffffff1681526020019081526020016000206000828254612116919061329f565b925050819055508273ffffffffffffffffffffffffffffffffffffffff168473ffffffffffffffffffffffffffffffffffffffff167fddf252ad1be2c89b69c2b068fc378daa952ba7f163c4a11628f55a4df523b3ef8460405161217a91906131e1565b60405180910390a361218d8484846123bb565b50505050565b600073ffffffffffffffffffffffffffffffffffffffff168373ffffffffffffffffffffffffffffffffffffffff161415612203576040517f08c379a00000000000000000000000000000000000000000000000000000000081526004016121fa90613141565b60405180910390fd5b600073ffffffffffffffffffffffffffffffffffffffff168273ffffffffffffffffffffffffffffffffffffffff161415612273576040517f08c379a000000000000000000000000000000000000000000000000000000000815260040161226a90612fe1565b60405180910390fd5b80600160008573ffffffffffffffffffffffffffffffffffffffff1673ffffffffffffffffffffffffffffffffffffffff16815260200190815260200160002060008473ffffffffffffffffffffffffffffffffffffffff1673ffffffffffffffffffffffffffffffffffffffff168152602001908152602001600020819055508173ffffffffffffffffffffffffffffffffffffffff168373ffffffffffffffffffffffffffffffffffffffff167f8c5be1e5ebec7d5bd14f71427d1e84f3dd0314c0f7b2291e5b200ac8c7c3b9258360405161235191906131e1565b60405180910390a3505050565b6000818361236c91906132f5565b905092915050565b600081836123829190613326565b905092915050565b600081836123989190613380565b905092915050565b600081836123ae919061329f565b905092915050565b505050565b505050565b60006123d36123ce84613248565b613217565b9050828152602081018484840111156123eb57600080fd5b6123f6848285613409565b509392505050565b60008135905061240d8161354a565b92915050565b600082601f83011261242457600080fd5b81356124348482602086016123c0565b91505092915050565b60008135905061244c81613561565b92915050565b60006020828403121561246457600080fd5b6000612472848285016123fe565b91505092915050565b6000806040838503121561248e57600080fd5b600061249c858286016123fe565b92505060206124ad858286016123fe565b9150509250929050565b60008060008060008060c087890312156124d057600080fd5b60006124de89828a016123fe565b96505060206124ef89828a016123fe565b955050604061250089828a016123fe565b945050606061251189828a016123fe565b935050608061252289828a016123fe565b92505060a061253389828a016123fe565b9150509295509295509295565b60008060006060848603121561255557600080fd5b6000612563868287016123fe565b9350506020612574868287016123fe565b92505060406125858682870161243d565b9150509250925092565b60008060008060008060c087890312156125a857600080fd5b60006125b689828a016123fe565b965050602087013567ffffffffffffffff8111156125d357600080fd5b6125df89828a01612413565b95505060406125f089828a0161243d565b945050606061260189828a0161243d565b935050608061261289828a0161243d565b92505060a061262389828a0161243d565b9150509295509295509295565b6000806040838503121561264357600080fd5b6000612651858286016123fe565b92505060206126628582860161243d565b9150509250929050565b6000806040838503121561267f57600080fd5b600083013567ffffffffffffffff81111561269957600080fd5b6126a585828601612413565b92505060206126b6858286016123fe565b9150509250929050565b6000602082840312156126d257600080fd5b60006126e08482850161243d565b91505092915050565b6126f2816133b4565b82525050565b612701816133c6565b82525050565b600061271282613278565b61271c8185613283565b935061272c818560208601613418565b61273581613539565b840191505092915050565b600061274b82613278565b6127558185613294565b9350612765818560208601613418565b80840191505092915050565b600061277e602383613283565b91507f45524332303a207472616e7366657220746f20746865207a65726f206164647260008301527f65737300000000000000000000000000000000000000000000000000000000006020830152604082019050919050565b60006127e4600383613294565b91507f64657800000000000000000000000000000000000000000000000000000000006000830152600382019050919050565b6000612824600383613294565b91507f6c697100000000000000000000000000000000000000000000000000000000006000830152600382019050919050565b6000612864602283613283565b91507f45524332303a20617070726f766520746f20746865207a65726f20616464726560008301527f73730000000000000000000000000000000000000000000000000000000000006020830152604082019050919050565b60006128ca600a83613294565b91507f7075626c696373616c65000000000000000000000000000000000000000000006000830152600a82019050919050565b600061290a602883613283565b91507f556e617574686f72697a6564206c697175696469747920696e63656e7469766560008301527f732077616c6c65740000000000000000000000000000000000000000000000006020830152604082019050919050565b6000612970602683613283565b91507f45524332303a207472616e7366657220616d6f756e742065786365656473206260008301527f616c616e636500000000000000000000000000000000000000000000000000006020830152604082019050919050565b60006129d6601883613283565b91507f556e617574686f72697a6564207465616d2077616c6c657400000000000000006000830152602082019050919050565b6000612a16601283613283565b91507f4d617820616d6f756e74207265616368656400000000000000000000000000006000830152602082019050919050565b6000612a56601f83613283565b91507f556e617574686f72697a6564207075626c69632073616c652077616c6c6574006000830152602082019050919050565b6000612a96601883613283565b91507f576974686472617720616d6f756e7420746f6f206869676800000000000000006000830152602082019050919050565b6000612ad6601d83613283565b91507f556e617574686f72697a65642065636f73797374656d2077616c6c65740000006000830152602082019050919050565b6000612b16600b83613294565b91507f7072697661746573616c650000000000000000000000000000000000000000006000830152600b82019050919050565b6000612b56602883613283565b91507f45524332303a207472616e7366657220616d6f756e742065786365656473206160008301527f6c6c6f77616e63650000000000000000000000000000000000000000000000006020830152604082019050919050565b6000612bbc600983613294565b91507f65636f73797374656d00000000000000000000000000000000000000000000006000830152600982019050919050565b6000612bfc601f83613283565b91507f4f6e6c79206f776e65722063616e2073657420627579657220746f6b656e73006000830152602082019050919050565b6000612c3c602583613283565b91507f45524332303a207472616e736665722066726f6d20746865207a65726f20616460008301527f64726573730000000000000000000000000000000000000000000000000000006020830152604082019050919050565b6000612ca2602483613283565b91507f45524332303a20617070726f76652066726f6d20746865207a65726f2061646460008301527f72657373000000000000000000000000000000000000000000000000000000006020830152604082019050919050565b6000612d08601c83613283565b91507f556e617574686f72697a65642072657365727665732077616c6c6574000000006000830152602082019050919050565b6000612d48601d83613283565b91507f4f6e6c79206f776e65722063616e207570646174652077616c6c6574730000006000830152602082019050919050565b6000612d88600483613294565b91507f7465616d000000000000000000000000000000000000000000000000000000006000830152600482019050919050565b6000612dc8600783613294565b91507f72657365727665000000000000000000000000000000000000000000000000006000830152600782019050919050565b6000612e08602583613283565b91507f45524332303a2064656372656173656420616c6c6f77616e63652062656c6f7760008301527f207a65726f0000000000000000000000000000000000000000000000000000006020830152604082019050919050565b6000612e6e601783613283565b91507f556e617574686f72697a6564206465782077616c6c65740000000000000000006000830152602082019050919050565b612eaa816133f2565b82525050565b612eb9816133fc565b82525050565b6000612ecb8284612740565b915081905092915050565b6000612ee1826127d7565b9150819050919050565b6000612ef682612817565b9150819050919050565b6000612f0b826128bd565b9150819050919050565b6000612f2082612b09565b9150819050919050565b6000612f3582612baf565b9150819050919050565b6000612f4a82612d7b565b9150819050919050565b6000612f5f82612dbb565b9150819050919050565b6000602082019050612f7e60008301846126e9565b92915050565b6000602082019050612f9960008301846126f8565b92915050565b60006020820190508181036000830152612fb98184612707565b905092915050565b60006020820190508181036000830152612fda81612771565b9050919050565b60006020820190508181036000830152612ffa81612857565b9050919050565b6000602082019050818103600083015261301a816128fd565b9050919050565b6000602082019050818103600083015261303a81612963565b9050919050565b6000602082019050818103600083015261305a816129c9565b9050919050565b6000602082019050818103600083015261307a81612a09565b9050919050565b6000602082019050818103600083015261309a81612a49565b9050919050565b600060208201905081810360008301526130ba81612a89565b9050919050565b600060208201905081810360008301526130da81612ac9565b9050919050565b600060208201905081810360008301526130fa81612b49565b9050919050565b6000602082019050818103600083015261311a81612bef565b9050919050565b6000602082019050818103600083015261313a81612c2f565b9050919050565b6000602082019050818103600083015261315a81612c95565b9050919050565b6000602082019050818103600083015261317a81612cfb565b9050919050565b6000602082019050818103600083015261319a81612d3b565b9050919050565b600060208201905081810360008301526131ba81612dfb565b9050919050565b600060208201905081810360008301526131da81612e61565b9050919050565b60006020820190506131f66000830184612ea1565b92915050565b60006020820190506132116000830184612eb0565b92915050565b6000604051905081810181811067ffffffffffffffff8211171561323e5761323d61350a565b5b8060405250919050565b600067ffffffffffffffff8211156132635761326261350a565b5b601f19601f8301169050602081019050919050565b600081519050919050565b600082825260208201905092915050565b600081905092915050565b60006132aa826133f2565b91506132b5836133f2565b9250827fffffffffffffffffffffffffffffffffffffffffffffffffffffffffffffffff038211156132ea576132e961347d565b5b828201905092915050565b6000613300826133f2565b915061330b836133f2565b92508261331b5761331a6134ac565b5b828204905092915050565b6000613331826133f2565b915061333c836133f2565b9250817fffffffffffffffffffffffffffffffffffffffffffffffffffffffffffffffff04831182151516156133755761337461347d565b5b828202905092915050565b600061338b826133f2565b9150613396836133f2565b9250828210156133a9576133a861347d565b5b828203905092915050565b60006133bf826133d2565b9050919050565b60008115159050919050565b600073ffffffffffffffffffffffffffffffffffffffff82169050919050565b6000819050919050565b600060ff82169050919050565b82818337600083830152505050565b60005b8381101561343657808201518184015260208101905061341b565b83811115613445576000848401525b50505050565b6000600282049050600182168061346357607f821691505b60208210811415613477576134766134db565b5b50919050565b7f4e487b7100000000000000000000000000000000000000000000000000000000600052601160045260246000fd5b7f4e487b7100000000000000000000000000000000000000000000000000000000600052601260045260246000fd5b7f4e487b7100000000000000000000000000000000000000000000000000000000600052602260045260246000fd5b7f4e487b7100000000000000000000000000000000000000000000000000000000600052604160045260246000fd5b6000601f19601f8301169050919050565b613553816133b4565b811461355e57600080fd5b50565b61356a816133f2565b811461357557600080fd5b5056fea2646970667358221220eaf5a7d1e90c94e002c677dd7ca592b2bb5212cb50f391d60c4d44e4ff472dd864736f6c63430008000033",
  "immutableReferences": {},
  "source": "pragma solidity ^0.8.0;\n\nimport \"openzeppelin-solidity/contracts/token/ERC20/ERC20.sol\";\nimport \"openzeppelin-solidity/contracts/utils/math/SafeMath.sol\";\n\ncontract EnvoyToken is ERC20 {\n\n  using SafeMath for uint256;\n\n  //\n  // ******************* VARIABLES *******************\n  //\n\n  // Deploy time\n  uint256 private _deployTime = block.timestamp;\n\n  // Contract owner\n  address public _ownerWallet;\n\n  // Public sale - 1M\n  address public _publicSaleWallet;\n  // Team - 20M\n  address public _teamWallet;\n  // Ecosystem - 25M\n  address public _ecosystemWallet;\n  // Advisors - 20M\n  address public _reservesWallet;\n  // DEX - 2M\n  address public _dexWallet;\n  // Liquidity incentives - 7M\n  address public _liqWallet;\n\n  // Amount of tokens per buyer in private sale - 25M\n  mapping(address => uint256) public _buyerTokens;\n\n  // Amount of tokens assigned to buyers\n  uint256 public _totalBuyerTokens;\n\n  // Amount of tokens a wallet has withdrawn already, per type\n  mapping(string => mapping(address => uint256)) public _walletTokensWithdrawn;\n\n\n  //\n  // ******************* SETUP *******************\n  //\n\n  constructor (string memory name, string memory symbol) public ERC20(name, symbol) {\n\n    // Set owner wallet\n    _ownerWallet = _msgSender();\n\n    // Mint 100M tokens for contract\n    _mint(address(this), 100000000000000000000000000);\n  }\n\n  //\n  // ******************* WALLETS SETUP *******************\n  //\n\n  // Owner can update owner\n  function updateOwner(address owner) public {\n    require(_msgSender() == _ownerWallet, \"Only owner can update wallets\");\n\n    _ownerWallet = owner; \n  }\n\n  // Update wallets\n  function updateWallets(address publicSale, address team, address ecosystem, address reserves, address dex, address liq) public {\n    require(_msgSender() == _ownerWallet, \"Only owner can update wallets\");\n\n    _publicSaleWallet = publicSale; \n    _teamWallet = team;\n    _ecosystemWallet = ecosystem;\n    _reservesWallet = reserves;\n    _dexWallet = dex;\n    _liqWallet = liq;\n  }\n\n  // Update buyer tokens\n  function setBuyerTokens(address buyer, uint256 tokenAmount) public {\n    require(_msgSender() == _ownerWallet, \"Only owner can set buyer tokens\");\n\n    // Update total\n    _totalBuyerTokens -= _buyerTokens[buyer];\n    _totalBuyerTokens += tokenAmount;\n\n    // Check if enough tokens left, can max assign 25M\n    require(_totalBuyerTokens <= 25000000000000000000000000, \"Max amount reached\");\n\n    // Update map\n    _buyerTokens[buyer] = tokenAmount;\n  }\n\n  //\n  // ******************* OWNER *******************\n  //\n\n  function publicSaleWithdraw(uint256 tokenAmount) public {\n    require(_msgSender() == _publicSaleWallet, \"Unauthorized public sale wallet\");\n\n    uint256 hasWithdrawn = _walletTokensWithdrawn[\"publicsale\"][_msgSender()];\n\n    // Total = 1M instant\n    uint256 canWithdraw = 1000000000000000000000000 - hasWithdrawn;\n\n    require(tokenAmount <= canWithdraw, \"Withdraw amount too high\");\n\n    _walletTokensWithdrawn[\"publicsale\"][_msgSender()] += tokenAmount;\n\n    _transfer(address(this), _msgSender(), tokenAmount);    \n  }\n\n  function teamWithdraw(uint256 tokenAmount) public {\n    require(_msgSender() == _teamWallet, \"Unauthorized team wallet\");\n\n    // Cliff = 6 months = 262800 minutes\n    // Vesting = 18 months 788401 minutes\n    // Total = 20M\n    uint256 canWithdraw = walletCanWithdraw(_msgSender(), \"team\", 0, 262800, 788401, 20000000000000000000000000);\n    \n    require(tokenAmount <= canWithdraw, \"Withdraw amount too high\");\n\n    _walletTokensWithdrawn[\"team\"][_msgSender()] += tokenAmount;\n\n    _transfer(address(this), _msgSender(), tokenAmount);  \n  }\n\n  function ecosystemWithdraw(uint256 tokenAmount) public {\n    require(_msgSender() == _ecosystemWallet, \"Unauthorized ecosystem wallet\");\n\n    // Cliff = 3 months = 131400 minutes\n    // Vesting = 24 months = 1051202 minutes\n    // Total = 25M\n    uint256 canWithdraw = walletCanWithdraw(_msgSender(), \"ecosystem\", 0, 131400, 1051202, 25000000000000000000000000);\n    \n    require(tokenAmount <= canWithdraw, \"Withdraw amount too high\");\n\n    _walletTokensWithdrawn[\"ecosystem\"][_msgSender()] += tokenAmount;\n\n    _transfer(address(this), _msgSender(), tokenAmount);  \n  }\n\n  function reservesWithdraw(uint256 tokenAmount) public {\n    require(_msgSender() == _reservesWallet, \"Unauthorized reserves wallet\");\n\n    // Cliff = 6 months = 262800 minutes\n    // Vesting = 24 months = 1051202 minutes\n    // Total = 20M\n    uint256 canWithdraw = walletCanWithdraw(_msgSender(), \"reserve\", 0, 262800, 1051202, 20000000000000000000000000);\n    \n    require(tokenAmount <= canWithdraw, \"Withdraw amount too high\");\n\n    _walletTokensWithdrawn[\"reserve\"][_msgSender()] += tokenAmount;\n\n    _transfer(address(this), _msgSender(), tokenAmount);  \n  }\n\n  function dexWithdraw(uint256 tokenAmount) public {\n    require(_msgSender() == _dexWallet, \"Unauthorized dex wallet\");\n\n    uint256 hasWithdrawn = _walletTokensWithdrawn[\"dex\"][_msgSender()];\n\n    // Total = 2M instant\n    uint256 canWithdraw = 2000000000000000000000000 - hasWithdrawn;\n\n    require(tokenAmount <= canWithdraw, \"Withdraw amount too high\");\n\n    _walletTokensWithdrawn[\"dex\"][_msgSender()] += tokenAmount;\n\n    _transfer(address(this), _msgSender(), tokenAmount);    \n  }\n\n  function liqWithdraw(uint256 tokenAmount) public {\n    require(_msgSender() == _liqWallet, \"Unauthorized liquidity incentives wallet\");\n\n    // Cliff = 0\n    // Vesting = 6 months = 262800 minutes\n    // Total = 7M\n    uint256 canWithdraw = walletCanWithdraw(_msgSender(), \"liq\", 0, 0, 262800, 7000000000000000000000000);\n    \n    require(tokenAmount <= canWithdraw, \"Withdraw amount too high\");\n\n    _walletTokensWithdrawn[\"liq\"][_msgSender()] += tokenAmount;\n\n    _transfer(address(this), _msgSender(), tokenAmount);  \n  }\n\n\n  function buyerWithdraw(uint256 tokenAmount) public {\n    \n    // TGE: 10%\n    // Cliff = 2 months = 87600 minutes\n    // Vesting = 6 months = 262800 minutes\n    uint256 canWithdraw = walletCanWithdraw(_msgSender(), \"privatesale\", 10, 87600, 262800, _buyerTokens[_msgSender()]);\n    \n    require(tokenAmount <= canWithdraw, \"Withdraw amount too high\");\n\n    _walletTokensWithdrawn[\"privatesale\"][_msgSender()] += tokenAmount;\n\n    _transfer(address(this), _msgSender(), tokenAmount);    \n  }\n\n  //\n  // ******************* UNLOCK CALCULATION *******************\n  //\n\n  function walletCanWithdraw(address wallet, string memory walletType, uint256 initialPercentage, uint256 cliffMinutes, uint256 vestingMinutes, uint256 totalTokens) public view returns(uint256) {\n    \n    uint256 minutesDiff = (block.timestamp - _deployTime).div(60);\n\n    // Tokens already withdrawn\n    uint256 withdrawnTokens = _walletTokensWithdrawn[walletType][wallet];\n\n    // Initial tokens\n    uint256 initialTokens = 0;\n    if (initialPercentage != 0) {\n      initialTokens = totalTokens.mul(initialPercentage).div(100);\n    }\n\n    // Cliff not ended\n    if (minutesDiff < uint256(cliffMinutes)) {\n      return initialTokens - withdrawnTokens;\n    }\n\n    // Tokens per minute over vesting period\n    uint256 buyerTokensPerMinute = totalTokens.sub(initialTokens).div(vestingMinutes); \n\n    // Advanced minutes minus cliff\n    uint256 unlockedMinutes = minutesDiff - uint256(cliffMinutes); \n\n    // Unlocked minutes * tokens per minutes + initial tokens\n    uint256 unlockedTokens = unlockedMinutes.mul(buyerTokensPerMinute).add(initialTokens); \n    \n    // No extra tokens unlocked\n    if (unlockedTokens <= withdrawnTokens) {\n      return 0;\n    }\n\n    // Check if buyer reached max\n    if (unlockedTokens > totalTokens) {\n      return totalTokens - withdrawnTokens;\n    }\n\n    // Result\n    return unlockedTokens - withdrawnTokens;\n  }\n\n}\n",
  "sourcePath": "/Users/nieldeckx/Development/Envoy-Token/Contracts/contracts/EnvoyToken.sol",
  "compiler": {
    "name": "solc",
    "version": "0.8.0+commit.c7dfd78e.Emscripten.clang"
  },
  "schemaVersion": "3.4.1",
  "updatedAt": "2021-08-24T16:01:57.037Z",
  "networkType": "ethereum",
  "devdoc": {
    "kind": "dev",
    "methods": {
      "allowance(address,address)": {
        "details": "See {IERC20-allowance}."
      },
      "approve(address,uint256)": {
        "details": "See {IERC20-approve}. Requirements: - `spender` cannot be the zero address."
      },
      "balanceOf(address)": {
        "details": "See {IERC20-balanceOf}."
      },
      "decimals()": {
        "details": "Returns the number of decimals used to get its user representation. For example, if `decimals` equals `2`, a balance of `505` tokens should be displayed to a user as `5,05` (`505 / 10 ** 2`). Tokens usually opt for a value of 18, imitating the relationship between Ether and Wei. This is the value {ERC20} uses, unless this function is overridden; NOTE: This information is only used for _display_ purposes: it in no way affects any of the arithmetic of the contract, including {IERC20-balanceOf} and {IERC20-transfer}."
      },
      "decreaseAllowance(address,uint256)": {
        "details": "Atomically decreases the allowance granted to `spender` by the caller. This is an alternative to {approve} that can be used as a mitigation for problems described in {IERC20-approve}. Emits an {Approval} event indicating the updated allowance. Requirements: - `spender` cannot be the zero address. - `spender` must have allowance for the caller of at least `subtractedValue`."
      },
      "increaseAllowance(address,uint256)": {
        "details": "Atomically increases the allowance granted to `spender` by the caller. This is an alternative to {approve} that can be used as a mitigation for problems described in {IERC20-approve}. Emits an {Approval} event indicating the updated allowance. Requirements: - `spender` cannot be the zero address."
      },
      "name()": {
        "details": "Returns the name of the token."
      },
      "symbol()": {
        "details": "Returns the symbol of the token, usually a shorter version of the name."
      },
      "totalSupply()": {
        "details": "See {IERC20-totalSupply}."
      },
      "transfer(address,uint256)": {
        "details": "See {IERC20-transfer}. Requirements: - `recipient` cannot be the zero address. - the caller must have a balance of at least `amount`."
      },
      "transferFrom(address,address,uint256)": {
        "details": "See {IERC20-transferFrom}. Emits an {Approval} event indicating the updated allowance. This is not required by the EIP. See the note at the beginning of {ERC20}. Requirements: - `sender` and `recipient` cannot be the zero address. - `sender` must have a balance of at least `amount`. - the caller must have allowance for ``sender``'s tokens of at least `amount`."
      }
    },
    "version": 1
  },
  "userdoc": {
    "kind": "user",
    "methods": {},
    "version": 1
  }
}